{
  "_format": "hh-sol-artifact-1",
  "contractName": "CreedMasterContract",
  "sourceName": "contracts/CreedMasterContract.sol",
  "abi": [
    {
      "inputs": [
        {
          "internalType": "address",
          "name": "_creedToken",
          "type": "address"
        }
      ],
      "stateMutability": "nonpayable",
      "type": "constructor"
    },
    {
      "inputs": [],
      "name": "InsufficientBalance",
      "type": "error"
    },
    {
      "anonymous": false,
      "inputs": [
        {
          "indexed": false,
          "internalType": "address",
          "name": "by",
          "type": "address"
        },
        {
          "indexed": false,
          "internalType": "uint256",
          "name": "amount",
          "type": "uint256"
        }
      ],
      "name": "GamePointsToTokens",
      "type": "event"
    },
    {
      "anonymous": false,
      "inputs": [
        {
          "indexed": true,
          "internalType": "address",
          "name": "previousOwner",
          "type": "address"
        },
        {
          "indexed": true,
          "internalType": "address",
          "name": "newOwner",
          "type": "address"
        }
      ],
      "name": "OwnershipTransferred",
      "type": "event"
    },
    {
      "anonymous": false,
      "inputs": [
        {
          "indexed": false,
          "internalType": "address",
          "name": "by",
          "type": "address"
        },
        {
          "indexed": false,
          "internalType": "uint256",
          "name": "amount",
          "type": "uint256"
        }
      ],
      "name": "Staked",
      "type": "event"
    },
    {
      "anonymous": false,
      "inputs": [
        {
          "indexed": false,
          "internalType": "address",
          "name": "by",
          "type": "address"
        },
        {
          "indexed": false,
          "internalType": "uint256",
          "name": "amount",
          "type": "uint256"
        }
      ],
      "name": "Withdrawn",
      "type": "event"
    },
    {
      "inputs": [
        {
          "internalType": "address[]",
          "name": "_stakers",
          "type": "address[]"
        }
      ],
      "name": "acceptWithdrawTokenRequest",
      "outputs": [],
      "stateMutability": "nonpayable",
      "type": "function"
    },
    {
      "inputs": [
        {
          "internalType": "bytes",
          "name": "_userData",
          "type": "bytes"
        },
        {
          "internalType": "bytes",
          "name": "_signature",
          "type": "bytes"
        }
      ],
      "name": "convertGamePointsToTokens",
      "outputs": [],
      "stateMutability": "nonpayable",
      "type": "function"
    },
    {
      "inputs": [],
      "name": "creedToken",
      "outputs": [
        {
          "internalType": "contract IERC20",
          "name": "",
          "type": "address"
        }
      ],
      "stateMutability": "view",
      "type": "function"
    },
    {
      "inputs": [
        {
          "internalType": "address",
          "name": "_account",
          "type": "address"
        }
      ],
      "name": "earned",
      "outputs": [
        {
          "internalType": "uint256",
          "name": "",
          "type": "uint256"
        }
      ],
      "stateMutability": "view",
      "type": "function"
    },
    {
      "inputs": [
        {
          "internalType": "uint256",
          "name": "_proposalId",
          "type": "uint256"
        }
      ],
      "name": "executeProposal",
      "outputs": [],
      "stateMutability": "nonpayable",
      "type": "function"
    },
    {
      "inputs": [],
      "name": "getTokensInvesters",
      "outputs": [
        {
          "internalType": "address[]",
          "name": "",
          "type": "address[]"
        }
      ],
      "stateMutability": "view",
      "type": "function"
    },
    {
      "inputs": [],
      "name": "getWithdrawRequesters",
      "outputs": [
        {
          "internalType": "address[]",
          "name": "",
          "type": "address[]"
        }
      ],
      "stateMutability": "view",
      "type": "function"
    },
    {
      "inputs": [
        {
          "internalType": "uint256",
          "name": "",
          "type": "uint256"
        }
      ],
      "name": "investedUsers",
      "outputs": [
        {
          "internalType": "address",
          "name": "",
          "type": "address"
        }
      ],
      "stateMutability": "view",
      "type": "function"
    },
    {
      "inputs": [
        {
          "internalType": "uint256",
          "name": "",
          "type": "uint256"
        }
      ],
      "name": "investedWithdrawRequesters",
      "outputs": [
        {
          "internalType": "address",
          "name": "",
          "type": "address"
        }
      ],
      "stateMutability": "view",
      "type": "function"
    },
    {
      "inputs": [
        {
          "internalType": "address",
          "name": "",
          "type": "address"
        }
      ],
      "name": "invester",
      "outputs": [
        {
          "internalType": "bool",
          "name": "",
          "type": "bool"
        }
      ],
      "stateMutability": "view",
      "type": "function"
    },
    {
      "inputs": [
        {
          "internalType": "address",
          "name": "",
          "type": "address"
        }
      ],
      "name": "invetedTokenWithdrawRequest",
      "outputs": [
        {
          "internalType": "uint256",
          "name": "",
          "type": "uint256"
        }
      ],
      "stateMutability": "view",
      "type": "function"
    },
    {
      "inputs": [],
      "name": "lastUpdateTime",
      "outputs": [
        {
          "internalType": "uint256",
          "name": "",
          "type": "uint256"
        }
      ],
      "stateMutability": "view",
      "type": "function"
    },
    {
      "inputs": [],
      "name": "owner",
      "outputs": [
        {
          "internalType": "address",
          "name": "",
          "type": "address"
        }
      ],
      "stateMutability": "view",
      "type": "function"
    },
    {
      "inputs": [],
      "name": "proposalCount",
      "outputs": [
        {
          "internalType": "uint256",
          "name": "",
          "type": "uint256"
        }
      ],
      "stateMutability": "view",
      "type": "function"
    },
    {
      "inputs": [
        {
          "internalType": "uint256",
          "name": "",
          "type": "uint256"
        }
      ],
      "name": "proposals",
      "outputs": [
        {
          "internalType": "address",
          "name": "proposer",
          "type": "address"
        },
        {
          "internalType": "string",
          "name": "description",
          "type": "string"
        },
        {
          "internalType": "uint256",
          "name": "startTime",
          "type": "uint256"
        },
        {
          "internalType": "uint256",
          "name": "endTime",
          "type": "uint256"
        },
        {
          "internalType": "uint256",
          "name": "yesVotes",
          "type": "uint256"
        },
        {
          "internalType": "uint256",
          "name": "noVotes",
          "type": "uint256"
        },
        {
          "internalType": "bool",
          "name": "executed",
          "type": "bool"
        }
      ],
      "stateMutability": "view",
      "type": "function"
    },
    {
      "inputs": [],
      "name": "renounceOwnership",
      "outputs": [],
      "stateMutability": "nonpayable",
      "type": "function"
    },
    {
      "inputs": [],
      "name": "reward",
      "outputs": [
        {
          "internalType": "uint256",
          "name": "",
          "type": "uint256"
        }
      ],
      "stateMutability": "view",
      "type": "function"
    },
    {
      "inputs": [],
      "name": "rewardPerToken",
      "outputs": [
        {
          "internalType": "uint256",
          "name": "",
          "type": "uint256"
        }
      ],
      "stateMutability": "view",
      "type": "function"
    },
    {
      "inputs": [],
      "name": "rewardPerTokenStored",
      "outputs": [
        {
          "internalType": "uint256",
          "name": "",
          "type": "uint256"
        }
      ],
      "stateMutability": "view",
      "type": "function"
    },
    {
      "inputs": [],
      "name": "rewardRateInYear",
      "outputs": [
        {
          "internalType": "uint256",
          "name": "",
          "type": "uint256"
        }
      ],
      "stateMutability": "view",
      "type": "function"
    },
    {
      "inputs": [
        {
          "internalType": "uint256",
          "name": "_persontage",
          "type": "uint256"
        }
      ],
      "name": "setAnnualRewardPersontage",
      "outputs": [],
      "stateMutability": "nonpayable",
      "type": "function"
    },
    {
      "inputs": [
        {
          "internalType": "uint256",
          "name": "_tokens",
          "type": "uint256"
        },
        {
          "internalType": "uint256",
          "name": "_duration",
          "type": "uint256"
        }
      ],
      "name": "stakeTokens",
      "outputs": [],
      "stateMutability": "nonpayable",
      "type": "function"
    },
    {
      "inputs": [
        {
          "internalType": "address",
          "name": "",
          "type": "address"
        }
      ],
      "name": "stakingInfo",
      "outputs": [
        {
          "internalType": "uint256",
          "name": "stakedTokens",
          "type": "uint256"
        },
        {
          "internalType": "uint256",
          "name": "startTime",
          "type": "uint256"
        },
        {
          "internalType": "uint256",
          "name": "duration",
          "type": "uint256"
        },
        {
          "internalType": "uint256",
          "name": "rewardEarned",
          "type": "uint256"
        }
      ],
      "stateMutability": "view",
      "type": "function"
    },
    {
      "inputs": [
        {
          "internalType": "string",
          "name": "_description",
          "type": "string"
        }
      ],
      "name": "submitProposal",
      "outputs": [],
      "stateMutability": "nonpayable",
      "type": "function"
    },
    {
      "inputs": [],
      "name": "totalInvesters",
      "outputs": [
        {
          "internalType": "uint256",
          "name": "",
          "type": "uint256"
        }
      ],
      "stateMutability": "view",
      "type": "function"
    },
    {
      "inputs": [],
      "name": "totalStakedTokens",
      "outputs": [
        {
          "internalType": "uint256",
          "name": "",
          "type": "uint256"
        }
      ],
      "stateMutability": "view",
      "type": "function"
    },
    {
      "inputs": [
        {
          "internalType": "address",
          "name": "newOwner",
          "type": "address"
        }
      ],
      "name": "transferOwnership",
      "outputs": [],
      "stateMutability": "nonpayable",
      "type": "function"
    },
    {
      "inputs": [],
      "name": "unstakeTokensRequest",
      "outputs": [],
      "stateMutability": "nonpayable",
      "type": "function"
    },
    {
      "inputs": [
        {
          "internalType": "address",
          "name": "",
          "type": "address"
        }
      ],
      "name": "userRewardPerTokenPaid",
      "outputs": [
        {
          "internalType": "uint256",
          "name": "",
          "type": "uint256"
        }
      ],
      "stateMutability": "view",
      "type": "function"
    },
    {
      "inputs": [
        {
          "internalType": "uint256",
          "name": "_proposalId",
          "type": "uint256"
        },
        {
          "internalType": "bool",
          "name": "_supportsProposal",
          "type": "bool"
        }
      ],
      "name": "vote",
      "outputs": [],
      "stateMutability": "nonpayable",
      "type": "function"
    },
    {
      "inputs": [
        {
          "internalType": "uint256",
          "name": "_amount",
          "type": "uint256"
        }
      ],
      "name": "withdrawTokens",
      "outputs": [],
      "stateMutability": "nonpayable",
      "type": "function"
    }
  ],
  "bytecode": "0x60806040523480156200001157600080fd5b5060405162003d5938038062003d598339818101604052810190620000379190620001e4565b620000576200004b620000ae60201b60201c565b620000b660201b60201c565b6001808190555080600860006101000a81548173ffffffffffffffffffffffffffffffffffffffff021916908373ffffffffffffffffffffffffffffffffffffffff160217905550600a6005819055505062000216565b600033905090565b60008060009054906101000a900473ffffffffffffffffffffffffffffffffffffffff169050816000806101000a81548173ffffffffffffffffffffffffffffffffffffffff021916908373ffffffffffffffffffffffffffffffffffffffff1602179055508173ffffffffffffffffffffffffffffffffffffffff168173ffffffffffffffffffffffffffffffffffffffff167f8be0079c531659141344cd1fd0a4f28419497f9722a3daafe3b4186f6b6457e060405160405180910390a35050565b600080fd5b600073ffffffffffffffffffffffffffffffffffffffff82169050919050565b6000620001ac826200017f565b9050919050565b620001be816200019f565b8114620001ca57600080fd5b50565b600081519050620001de81620001b3565b92915050565b600060208284031215620001fd57620001fc6200017a565b5b60006200020d84828501620001cd565b91505092915050565b613b3380620002266000396000f3fe608060405234801561001057600080fd5b50600436106101e45760003560e01c8063744cc76d1161010f578063c8f33c91116100a2578063da35c66411610071578063da35c66414610574578063df136d6514610592578063f2fde38b146105b0578063f60cd3d8146105cc576101e4565b8063c8f33c9114610512578063c9d27afe14610530578063cadc40c01461054c578063cd3daf9d14610556576101e4565b80638da5cb5b116100de5780638da5cb5b146104875780638f67fc06146104a557806394eecb50146104c1578063af0afec9146104f4576101e4565b8063744cc76d146103db578063776542ce1461040b578063863f8237146104275780638b87634714610457576101e4565b8063315a095d116101875780633b7b6188116101565780633b7b6188146103695780634027c1301461038557806359df0d09146103b5578063715018a6146103d1576101e4565b8063315a095d146102e35780633611185c146102ff578063373d6d5e1461032f5780633ae732591461034b576101e4565b80630a10f767116101c35780630a10f7671461026d5780630d61b5191461028b578063228cb733146102a75780632d802893146102c5576101e4565b80628cc262146101e9578063013cf08b1461021957806305a147141461024f575b600080fd5b61020360048036038101906101fe9190612462565b6105ea565b60405161021091906124a8565b60405180910390f35b610233600480360381019061022e91906124ef565b610745565b60405161024697969594939291906125d6565b60405180910390f35b61025761083c565b604051610264919061270a565b60405180910390f35b6102756108ca565b604051610282919061270a565b60405180910390f35b6102a560048036038101906102a091906124ef565b610958565b005b6102af610a3a565b6040516102bc91906124a8565b60405180910390f35b6102cd610a40565b6040516102da91906124a8565b60405180910390f35b6102fd60048036038101906102f891906124ef565b610a72565b005b610319600480360381019061031491906124ef565b610b25565b604051610326919061272c565b60405180910390f35b6103496004803603810190610344919061287c565b610b64565b005b610353610c6e565b60405161036091906124a8565b60405180910390f35b610383600480360381019061037e91906128c5565b610c74565b005b61039f600480360381019061039a9190612462565b6110b0565b6040516103ac91906124a8565b60405180910390f35b6103cf60048036038101906103ca91906129cd565b6110c8565b005b6103d9611476565b005b6103f560048036038101906103f09190612462565b61148a565b6040516104029190612a16565b60405180910390f35b61042560048036038101906104209190612ad2565b6114aa565b005b610441600480360381019061043c91906124ef565b611657565b60405161044e919061272c565b60405180910390f35b610471600480360381019061046c9190612462565b611696565b60405161047e91906124a8565b60405180910390f35b61048f6116ae565b60405161049c919061272c565b60405180910390f35b6104bf60048036038101906104ba91906124ef565b6116d7565b005b6104db60048036038101906104d69190612462565b6116e9565b6040516104eb9493929190612b4a565b60405180910390f35b6104fc611719565b60405161050991906124a8565b60405180910390f35b61051a61171f565b60405161052791906124a8565b60405180910390f35b61054a60048036038101906105459190612bbb565b611725565b005b6105546118b0565b005b61055e611db7565b60405161056b91906124a8565b60405180910390f35b61057c611e2b565b60405161058991906124a8565b60405180910390f35b61059a611e31565b6040516105a791906124a8565b60405180910390f35b6105ca60048036038101906105c59190612462565b611e37565b005b6105d4611eba565b6040516105e19190612c5a565b60405180910390f35b600080600b60008473ffffffffffffffffffffffffffffffffffffffff1673ffffffffffffffffffffffffffffffffffffffff168152602001908152602001600020600001540361063e5760009050610740565b600b60008373ffffffffffffffffffffffffffffffffffffffff1673ffffffffffffffffffffffffffffffffffffffff16815260200190815260200160002060030154670de0b6b3a7640000600e60008573ffffffffffffffffffffffffffffffffffffffff1673ffffffffffffffffffffffffffffffffffffffff168152602001908152602001600020546106d2611db7565b600b60008773ffffffffffffffffffffffffffffffffffffffff1673ffffffffffffffffffffffffffffffffffffffff1681526020019081526020016000206000015461071f9190612ca4565b6107299190612ce6565b6107339190612d49565b61073d9190612d7a565b90505b919050565b600c6020528060005260406000206000915090508060000160009054906101000a900473ffffffffffffffffffffffffffffffffffffffff169080600101805461078e90612ddd565b80601f01602080910402602001604051908101604052809291908181526020018280546107ba90612ddd565b80156108075780601f106107dc57610100808354040283529160200191610807565b820191906000526020600020905b8154815290600101906020018083116107ea57829003601f168201915b5050505050908060020154908060030154908060050154908060060154908060070160009054906101000a900460ff16905087565b6060600a8054806020026020016040519081016040528092919081815260200182805480156108c057602002820191906000526020600020905b8160009054906101000a900473ffffffffffffffffffffffffffffffffffffffff1673ffffffffffffffffffffffffffffffffffffffff1681526020019060010190808311610876575b5050505050905090565b6060600980548060200260200160405190810160405280929190818152602001828054801561094e57602002820191906000526020600020905b8160009054906101000a900473ffffffffffffffffffffffffffffffffffffffff1673ffffffffffffffffffffffffffffffffffffffff1681526020019060010190808311610904575b5050505050905090565b6000600c6000838152602001908152602001600020905080600301544210156109b6576040517f08c379a00000000000000000000000000000000000000000000000000000000081526004016109ad90612e5a565b60405180910390fd5b8060070160009054906101000a900460ff1615610a08576040517f08c379a00000000000000000000000000000000000000000000000000000000081526004016109ff90612ec6565b60405180910390fd5b806006015481600501541115610a365760018160070160006101000a81548160ff0219169083151502179055505b5050565b60055481565b60006301e133806064600554600354610a599190612ca4565b610a639190612d49565b610a6d9190612d49565b905090565b610a7a611ee0565b600860009054906101000a900473ffffffffffffffffffffffffffffffffffffffff1673ffffffffffffffffffffffffffffffffffffffff1663a9059cbb610ac06116ae565b836040518363ffffffff1660e01b8152600401610ade929190612ee6565b6020604051808303816000875af1158015610afd573d6000803e3d6000fd5b505050506040513d601f19601f82011682018060405250810190610b219190612f24565b5050565b600a8181548110610b3557600080fd5b906000526020600020016000915054906101000a900473ffffffffffffffffffffffffffffffffffffffff1681565b6000815111610ba8576040517f08c379a0000000000000000000000000000000000000000000000000000000008152600401610b9f90612f9d565b60405180910390fd5b60026000815480929190610bbb90612fbd565b91905055506000600c600060025481526020019081526020016000209050338160000160006101000a81548173ffffffffffffffffffffffffffffffffffffffff021916908373ffffffffffffffffffffffffffffffffffffffff16021790555081816001019081610c2d91906131a7565b5042816002018190555061138842610c459190612d7a565b816003018190555060008160070160006101000a81548160ff0219169083151502179055505050565b60035481565b33610c7d611db7565b60068190555042600781905550610c93816105ea565b600b60008373ffffffffffffffffffffffffffffffffffffffff1673ffffffffffffffffffffffffffffffffffffffff16815260200190815260200160002060030181905550600654600e60008373ffffffffffffffffffffffffffffffffffffffff1673ffffffffffffffffffffffffffffffffffffffff16815260200190815260200160002081905550610d27611f5e565b60008311610d6a576040517f08c379a0000000000000000000000000000000000000000000000000000000008152600401610d61906132c5565b60405180910390fd5b82600860009054906101000a900473ffffffffffffffffffffffffffffffffffffffff1673ffffffffffffffffffffffffffffffffffffffff166370a08231336040518263ffffffff1660e01b8152600401610dc6919061272c565b602060405180830381865afa158015610de3573d6000803e3d6000fd5b505050506040513d601f19601f82011682018060405250810190610e0791906132fa565b1015610e3f576040517ff4d678b800000000000000000000000000000000000000000000000000000000815260040160405180910390fd5b6000600b60003373ffffffffffffffffffffffffffffffffffffffff1673ffffffffffffffffffffffffffffffffffffffff1681526020019081526020016000209050600860009054906101000a900473ffffffffffffffffffffffffffffffffffffffff1673ffffffffffffffffffffffffffffffffffffffff166323b872dd3330876040518463ffffffff1660e01b8152600401610ee193929190613327565b6020604051808303816000875af1158015610f00573d6000803e3d6000fd5b505050506040513d601f19601f82011682018060405250810190610f249190612f24565b5083816000016000828254610f399190612d7a565b9250508190555082816002016000828254610f549190612d7a565b92505081905550428160010181905550600f60003373ffffffffffffffffffffffffffffffffffffffff1673ffffffffffffffffffffffffffffffffffffffff16815260200190815260200160002060009054906101000a900460ff1661108957600a339080600181540180825580915050600190039060005260206000200160009091909190916101000a81548173ffffffffffffffffffffffffffffffffffffffff021916908373ffffffffffffffffffffffffffffffffffffffff1602179055506001600f60003373ffffffffffffffffffffffffffffffffffffffff1673ffffffffffffffffffffffffffffffffffffffff16815260200190815260200160002060006101000a81548160ff0219169083151502179055506004600081548092919061108390612fbd565b91905055505b836003600082825461109b9190612d7a565b92505081905550506110ab611fad565b505050565b600d6020528060005260406000206000915090505481565b6110d0611ee0565b60005b81518110156114725760008282815181106110f1576110f061335e565b5b60200260200101519050600073ffffffffffffffffffffffffffffffffffffffff168173ffffffffffffffffffffffffffffffffffffffff160361116a576040517f08c379a0000000000000000000000000000000000000000000000000000000008152600401611161906133d9565b60405180910390fd5b6000600d60008373ffffffffffffffffffffffffffffffffffffffff1673ffffffffffffffffffffffffffffffffffffffff1681526020019081526020016000205490506000600d60008473ffffffffffffffffffffffffffffffffffffffff1673ffffffffffffffffffffffffffffffffffffffff1681526020019081526020016000208190555060006009905060005b818054905081101561137f578373ffffffffffffffffffffffffffffffffffffffff168282815481106112325761123161335e565b5b9060005260206000200160009054906101000a900473ffffffffffffffffffffffffffffffffffffffff1673ffffffffffffffffffffffffffffffffffffffff160361136c57816001838054905061128a9190612ce6565b8154811061129b5761129a61335e565b5b9060005260206000200160009054906101000a900473ffffffffffffffffffffffffffffffffffffffff168282815481106112d9576112d861335e565b5b9060005260206000200160006101000a81548173ffffffffffffffffffffffffffffffffffffffff021916908373ffffffffffffffffffffffffffffffffffffffff16021790555081805480611332576113316133f9565b5b6001900381819060005260206000200160006101000a81549073ffffffffffffffffffffffffffffffffffffffff0219169055905561137f565b808061137790612fbd565b9150506111fc565b50600860009054906101000a900473ffffffffffffffffffffffffffffffffffffffff1673ffffffffffffffffffffffffffffffffffffffff166323b872dd3385856040518463ffffffff1660e01b81526004016113df93929190613327565b6020604051808303816000875af11580156113fe573d6000803e3d6000fd5b505050506040513d601f19601f820116820180604052508101906114229190612f24565b507f7084f5476618d8e60b11ef0d7d3f06914655adb8793e28ff7f018d4c76d505d58383604051611454929190612ee6565b60405180910390a1505050808061146a90612fbd565b9150506110d3565b5050565b61147e611ee0565b6114886000611fb6565b565b600f6020528060005260406000206000915054906101000a900460ff1681565b600080838060200190518101906114c19190613466565b91509150600082826040516020016114da92919061350f565b60405160208183030381529060405280519060200120905060006114fe828661207a565b90506115086116ae565b73ffffffffffffffffffffffffffffffffffffffff168173ffffffffffffffffffffffffffffffffffffffff1614611575576040517f08c379a000000000000000000000000000000000000000000000000000000000815260040161156c90613587565b60405180910390fd5b600860009054906101000a900473ffffffffffffffffffffffffffffffffffffffff1673ffffffffffffffffffffffffffffffffffffffff1663a9059cbb85856040518363ffffffff1660e01b81526004016115d2929190612ee6565b6020604051808303816000875af11580156115f1573d6000803e3d6000fd5b505050506040513d601f19601f820116820180604052508101906116159190612f24565b507fc9a1cf50e29d50be8e46a70c1f4c2e98dcc6ce4043fed229b340b6b568c4d04b8484604051611647929190612ee6565b60405180910390a1505050505050565b6009818154811061166757600080fd5b906000526020600020016000915054906101000a900473ffffffffffffffffffffffffffffffffffffffff1681565b600e6020528060005260406000206000915090505481565b60008060009054906101000a900473ffffffffffffffffffffffffffffffffffffffff16905090565b6116df611ee0565b8060058190555050565b600b6020528060005260406000206000915090508060000154908060010154908060020154908060030154905084565b60045481565b60075481565b6000600c6000848152602001908152602001600020905080600301544210611782576040517f08c379a0000000000000000000000000000000000000000000000000000000008152600401611779906135f3565b60405180910390fd5b8060040160003373ffffffffffffffffffffffffffffffffffffffff1673ffffffffffffffffffffffffffffffffffffffff16815260200190815260200160002060009054906101000a900460ff1615611811576040517f08c379a00000000000000000000000000000000000000000000000000000000081526004016118089061365f565b60405180910390fd5b81156118365780600501600081548092919061182c90612fbd565b9190505550611851565b80600601600081548092919061184b90612fbd565b91905055505b60018160040160003373ffffffffffffffffffffffffffffffffffffffff1673ffffffffffffffffffffffffffffffffffffffff16815260200190815260200160002060006101000a81548160ff021916908315150217905550505050565b336118b9611db7565b600681905550426007819055506118cf816105ea565b600b60008373ffffffffffffffffffffffffffffffffffffffff1673ffffffffffffffffffffffffffffffffffffffff16815260200190815260200160002060030181905550600654600e60008373ffffffffffffffffffffffffffffffffffffffff1673ffffffffffffffffffffffffffffffffffffffff16815260200190815260200160002081905550611963611f5e565b6000600b60003373ffffffffffffffffffffffffffffffffffffffff1673ffffffffffffffffffffffffffffffffffffffff168152602001908152602001600020905060008160000154116119ed576040517f08c379a00000000000000000000000000000000000000000000000000000000081526004016119e4906136cb565b60405180910390fd5b80600201544211611a33576040517f08c379a0000000000000000000000000000000000000000000000000000000008152600401611a2a90613737565b60405180910390fd5b600081600001549050600082600301549050600f60003373ffffffffffffffffffffffffffffffffffffffff1673ffffffffffffffffffffffffffffffffffffffff16815260200190815260200160002060009054906101000a900460ff1615611c7e576000600f60003373ffffffffffffffffffffffffffffffffffffffff1673ffffffffffffffffffffffffffffffffffffffff16815260200190815260200160002060006101000a81548160ff0219169083151502179055506000600a905060005b8180549050811015611c7b573373ffffffffffffffffffffffffffffffffffffffff16828281548110611b2e57611b2d61335e565b5b9060005260206000200160009054906101000a900473ffffffffffffffffffffffffffffffffffffffff1673ffffffffffffffffffffffffffffffffffffffff1603611c68578160018380549050611b869190612ce6565b81548110611b9757611b9661335e565b5b9060005260206000200160009054906101000a900473ffffffffffffffffffffffffffffffffffffffff16828281548110611bd557611bd461335e565b5b9060005260206000200160006101000a81548173ffffffffffffffffffffffffffffffffffffffff021916908373ffffffffffffffffffffffffffffffffffffffff16021790555081805480611c2e57611c2d6133f9565b5b6001900381819060005260206000200160006101000a81549073ffffffffffffffffffffffffffffffffffffffff02191690559055611c7b565b8080611c7390612fbd565b915050611af8565b50505b600083600001819055506000836003018190555060008360010181905550600083600201819055508160036000828254611cb89190612ce6565b9250508190555060046000815480929190611cd290613757565b91905055508181611ce39190612d7a565b600d60003373ffffffffffffffffffffffffffffffffffffffff1673ffffffffffffffffffffffffffffffffffffffff1681526020019081526020016000206000828254611d319190612d7a565b92505081905550611d41336120a1565b611da9576009339080600181540180825580915050600190039060005260206000200160009091909190916101000a81548173ffffffffffffffffffffffffffffffffffffffff021916908373ffffffffffffffffffffffffffffffffffffffff1602179055505b505050611db4611fad565b50565b60008060035403611dcc576006549050611e28565b600060075442611ddc9190612ce6565b9050600081611de9610a40565b611df39190612ca4565b9050600354670de0b6b3a764000082600654611e0f9190612d7a565b611e199190612ca4565b611e239190612d49565b925050505b90565b60025481565b60065481565b611e3f611ee0565b600073ffffffffffffffffffffffffffffffffffffffff168173ffffffffffffffffffffffffffffffffffffffff1603611eae576040517f08c379a0000000000000000000000000000000000000000000000000000000008152600401611ea5906137f2565b60405180910390fd5b611eb781611fb6565b50565b600860009054906101000a900473ffffffffffffffffffffffffffffffffffffffff1681565b611ee861214f565b73ffffffffffffffffffffffffffffffffffffffff16611f066116ae565b73ffffffffffffffffffffffffffffffffffffffff1614611f5c576040517f08c379a0000000000000000000000000000000000000000000000000000000008152600401611f539061385e565b60405180910390fd5b565b600260015403611fa3576040517f08c379a0000000000000000000000000000000000000000000000000000000008152600401611f9a906138ca565b60405180910390fd5b6002600181905550565b60018081905550565b60008060009054906101000a900473ffffffffffffffffffffffffffffffffffffffff169050816000806101000a81548173ffffffffffffffffffffffffffffffffffffffff021916908373ffffffffffffffffffffffffffffffffffffffff1602179055508173ffffffffffffffffffffffffffffffffffffffff168173ffffffffffffffffffffffffffffffffffffffff167f8be0079c531659141344cd1fd0a4f28419497f9722a3daafe3b4186f6b6457e060405160405180910390a35050565b60008060006120898585612157565b91509150612096816121a8565b819250505092915050565b600080600090505b600980549050811015612144578273ffffffffffffffffffffffffffffffffffffffff16600982815481106120e1576120e061335e565b5b9060005260206000200160009054906101000a900473ffffffffffffffffffffffffffffffffffffffff1673ffffffffffffffffffffffffffffffffffffffff160361213157600191505061214a565b808061213c90612fbd565b9150506120a9565b50600090505b919050565b600033905090565b60008060418351036121985760008060006020860151925060408601519150606086015160001a905061218c8782858561230e565b945094505050506121a1565b60006002915091505b9250929050565b600060048111156121bc576121bb6138ea565b5b8160048111156121cf576121ce6138ea565b5b031561230b57600160048111156121e9576121e86138ea565b5b8160048111156121fc576121fb6138ea565b5b0361223c576040517f08c379a000000000000000000000000000000000000000000000000000000000815260040161223390613965565b60405180910390fd5b600260048111156122505761224f6138ea565b5b816004811115612263576122626138ea565b5b036122a3576040517f08c379a000000000000000000000000000000000000000000000000000000000815260040161229a906139d1565b60405180910390fd5b600360048111156122b7576122b66138ea565b5b8160048111156122ca576122c96138ea565b5b0361230a576040517f08c379a000000000000000000000000000000000000000000000000000000000815260040161230190613a63565b60405180910390fd5b5b50565b6000807f7fffffffffffffffffffffffffffffff5d576e7357a4501ddfe92f46681b20a08360001c11156123495760006003915091506123e7565b60006001878787876040516000815260200160405260405161236e9493929190613ab8565b6020604051602081039080840390855afa158015612390573d6000803e3d6000fd5b505050602060405103519050600073ffffffffffffffffffffffffffffffffffffffff168173ffffffffffffffffffffffffffffffffffffffff16036123de576000600192509250506123e7565b80600092509250505b94509492505050565b6000604051905090565b600080fd5b600080fd5b600073ffffffffffffffffffffffffffffffffffffffff82169050919050565b600061242f82612404565b9050919050565b61243f81612424565b811461244a57600080fd5b50565b60008135905061245c81612436565b92915050565b600060208284031215612478576124776123fa565b5b60006124868482850161244d565b91505092915050565b6000819050919050565b6124a28161248f565b82525050565b60006020820190506124bd6000830184612499565b92915050565b6124cc8161248f565b81146124d757600080fd5b50565b6000813590506124e9816124c3565b92915050565b600060208284031215612505576125046123fa565b5b6000612513848285016124da565b91505092915050565b61252581612424565b82525050565b600081519050919050565b600082825260208201905092915050565b60005b8381101561256557808201518184015260208101905061254a565b60008484015250505050565b6000601f19601f8301169050919050565b600061258d8261252b565b6125978185612536565b93506125a7818560208601612547565b6125b081612571565b840191505092915050565b60008115159050919050565b6125d0816125bb565b82525050565b600060e0820190506125eb600083018a61251c565b81810360208301526125fd8189612582565b905061260c6040830188612499565b6126196060830187612499565b6126266080830186612499565b61263360a0830185612499565b61264060c08301846125c7565b98975050505050505050565b600081519050919050565b600082825260208201905092915050565b6000819050602082019050919050565b61268181612424565b82525050565b60006126938383612678565b60208301905092915050565b6000602082019050919050565b60006126b78261264c565b6126c18185612657565b93506126cc83612668565b8060005b838110156126fd5781516126e48882612687565b97506126ef8361269f565b9250506001810190506126d0565b5085935050505092915050565b6000602082019050818103600083015261272481846126ac565b905092915050565b6000602082019050612741600083018461251c565b92915050565b600080fd5b600080fd5b7f4e487b7100000000000000000000000000000000000000000000000000000000600052604160045260246000fd5b61278982612571565b810181811067ffffffffffffffff821117156127a8576127a7612751565b5b80604052505050565b60006127bb6123f0565b90506127c78282612780565b919050565b600067ffffffffffffffff8211156127e7576127e6612751565b5b6127f082612571565b9050602081019050919050565b82818337600083830152505050565b600061281f61281a846127cc565b6127b1565b90508281526020810184848401111561283b5761283a61274c565b5b6128468482856127fd565b509392505050565b600082601f83011261286357612862612747565b5b813561287384826020860161280c565b91505092915050565b600060208284031215612892576128916123fa565b5b600082013567ffffffffffffffff8111156128b0576128af6123ff565b5b6128bc8482850161284e565b91505092915050565b600080604083850312156128dc576128db6123fa565b5b60006128ea858286016124da565b92505060206128fb858286016124da565b9150509250929050565b600067ffffffffffffffff8211156129205761291f612751565b5b602082029050602081019050919050565b600080fd5b600061294961294484612905565b6127b1565b9050808382526020820190506020840283018581111561296c5761296b612931565b5b835b818110156129955780612981888261244d565b84526020840193505060208101905061296e565b5050509392505050565b600082601f8301126129b4576129b3612747565b5b81356129c4848260208601612936565b91505092915050565b6000602082840312156129e3576129e26123fa565b5b600082013567ffffffffffffffff811115612a0157612a006123ff565b5b612a0d8482850161299f565b91505092915050565b6000602082019050612a2b60008301846125c7565b92915050565b600067ffffffffffffffff821115612a4c57612a4b612751565b5b612a5582612571565b9050602081019050919050565b6000612a75612a7084612a31565b6127b1565b905082815260208101848484011115612a9157612a9061274c565b5b612a9c8482856127fd565b509392505050565b600082601f830112612ab957612ab8612747565b5b8135612ac9848260208601612a62565b91505092915050565b60008060408385031215612ae957612ae86123fa565b5b600083013567ffffffffffffffff811115612b0757612b066123ff565b5b612b1385828601612aa4565b925050602083013567ffffffffffffffff811115612b3457612b336123ff565b5b612b4085828601612aa4565b9150509250929050565b6000608082019050612b5f6000830187612499565b612b6c6020830186612499565b612b796040830185612499565b612b866060830184612499565b95945050505050565b612b98816125bb565b8114612ba357600080fd5b50565b600081359050612bb581612b8f565b92915050565b60008060408385031215612bd257612bd16123fa565b5b6000612be0858286016124da565b9250506020612bf185828601612ba6565b9150509250929050565b6000819050919050565b6000612c20612c1b612c1684612404565b612bfb565b612404565b9050919050565b6000612c3282612c05565b9050919050565b6000612c4482612c27565b9050919050565b612c5481612c39565b82525050565b6000602082019050612c6f6000830184612c4b565b92915050565b7f4e487b7100000000000000000000000000000000000000000000000000000000600052601160045260246000fd5b6000612caf8261248f565b9150612cba8361248f565b9250828202612cc88161248f565b91508282048414831517612cdf57612cde612c75565b5b5092915050565b6000612cf18261248f565b9150612cfc8361248f565b9250828203905081811115612d1457612d13612c75565b5b92915050565b7f4e487b7100000000000000000000000000000000000000000000000000000000600052601260045260246000fd5b6000612d548261248f565b9150612d5f8361248f565b925082612d6f57612d6e612d1a565b5b828204905092915050565b6000612d858261248f565b9150612d908361248f565b9250828201905080821115612da857612da7612c75565b5b92915050565b7f4e487b7100000000000000000000000000000000000000000000000000000000600052602260045260246000fd5b60006002820490506001821680612df557607f821691505b602082108103612e0857612e07612dae565b5b50919050565b7f566f74696e6720706572696f64206e6f7420656e646564000000000000000000600082015250565b6000612e44601783612536565b9150612e4f82612e0e565b602082019050919050565b60006020820190508181036000830152612e7381612e37565b9050919050565b7f50726f706f73616c20616c726561647920657865637574656400000000000000600082015250565b6000612eb0601983612536565b9150612ebb82612e7a565b602082019050919050565b60006020820190508181036000830152612edf81612ea3565b9050919050565b6000604082019050612efb600083018561251c565b612f086020830184612499565b9392505050565b600081519050612f1e81612b8f565b92915050565b600060208284031215612f3a57612f396123fa565b5b6000612f4884828501612f0f565b91505092915050565b7f4465736372697074696f6e206d757374206e6f7420626520656d707479000000600082015250565b6000612f87601d83612536565b9150612f9282612f51565b602082019050919050565b60006020820190508181036000830152612fb681612f7a565b9050919050565b6000612fc88261248f565b91507fffffffffffffffffffffffffffffffffffffffffffffffffffffffffffffffff8203612ffa57612ff9612c75565b5b600182019050919050565b60008190508160005260206000209050919050565b60006020601f8301049050919050565b600082821b905092915050565b6000600883026130677fffffffffffffffffffffffffffffffffffffffffffffffffffffffffffffffff8261302a565b613071868361302a565b95508019841693508086168417925050509392505050565b60006130a461309f61309a8461248f565b612bfb565b61248f565b9050919050565b6000819050919050565b6130be83613089565b6130d26130ca826130ab565b848454613037565b825550505050565b600090565b6130e76130da565b6130f28184846130b5565b505050565b5b818110156131165761310b6000826130df565b6001810190506130f8565b5050565b601f82111561315b5761312c81613005565b6131358461301a565b81016020851015613144578190505b6131586131508561301a565b8301826130f7565b50505b505050565b600082821c905092915050565b600061317e60001984600802613160565b1980831691505092915050565b6000613197838361316d565b9150826002028217905092915050565b6131b08261252b565b67ffffffffffffffff8111156131c9576131c8612751565b5b6131d38254612ddd565b6131de82828561311a565b600060209050601f83116001811461321157600084156131ff578287015190505b613209858261318b565b865550613271565b601f19841661321f86613005565b60005b8281101561324757848901518255600182019150602085019450602081019050613222565b868310156132645784890151613260601f89168261316d565b8355505b6001600288020188555050505b505050505050565b7f416d6f756e742063616e6e6f7420626520300000000000000000000000000000600082015250565b60006132af601283612536565b91506132ba82613279565b602082019050919050565b600060208201905081810360008301526132de816132a2565b9050919050565b6000815190506132f4816124c3565b92915050565b6000602082840312156133105761330f6123fa565b5b600061331e848285016132e5565b91505092915050565b600060608201905061333c600083018661251c565b613349602083018561251c565b6133566040830184612499565b949350505050565b7f4e487b7100000000000000000000000000000000000000000000000000000000600052603260045260246000fd5b7f496e76616c696420616464726573730000000000000000000000000000000000600082015250565b60006133c3600f83612536565b91506133ce8261338d565b602082019050919050565b600060208201905081810360008301526133f2816133b6565b9050919050565b7f4e487b7100000000000000000000000000000000000000000000000000000000600052603160045260246000fd5b600061343382612404565b9050919050565b61344381613428565b811461344e57600080fd5b50565b6000815190506134608161343a565b92915050565b6000806040838503121561347d5761347c6123fa565b5b600061348b85828601613451565b925050602061349c858286016132e5565b9150509250929050565b60008160601b9050919050565b60006134be826134a6565b9050919050565b60006134d0826134b3565b9050919050565b6134e86134e382612424565b6134c5565b82525050565b6000819050919050565b6135096135048261248f565b6134ee565b82525050565b600061351b82856134d7565b60148201915061352b82846134f8565b6020820191508190509392505050565b7f496e76616c6964207369676e6174757265000000000000000000000000000000600082015250565b6000613571601183612536565b915061357c8261353b565b602082019050919050565b600060208201905081810360008301526135a081613564565b9050919050565b7f566f74696e6720706572696f6420656e64656400000000000000000000000000600082015250565b60006135dd601383612536565b91506135e8826135a7565b602082019050919050565b6000602082019050818103600083015261360c816135d0565b9050919050565b7f416c726561647920766f74656400000000000000000000000000000000000000600082015250565b6000613649600d83612536565b915061365482613613565b602082019050919050565b600060208201905081810360008301526136788161363c565b9050919050565b7f616c726561647920776974686461727720746f6b656e73000000000000000000600082015250565b60006136b5601783612536565b91506136c08261367f565b602082019050919050565b600060208201905081810360008301526136e4816136a8565b9050919050565b7f7761697420666f7220756e7374616b652074696d650000000000000000000000600082015250565b6000613721601583612536565b915061372c826136eb565b602082019050919050565b6000602082019050818103600083015261375081613714565b9050919050565b60006137628261248f565b91506000820361377557613774612c75565b5b600182039050919050565b7f4f776e61626c653a206e6577206f776e657220697320746865207a65726f206160008201527f6464726573730000000000000000000000000000000000000000000000000000602082015250565b60006137dc602683612536565b91506137e782613780565b604082019050919050565b6000602082019050818103600083015261380b816137cf565b9050919050565b7f4f776e61626c653a2063616c6c6572206973206e6f7420746865206f776e6572600082015250565b6000613848602083612536565b915061385382613812565b602082019050919050565b600060208201905081810360008301526138778161383b565b9050919050565b7f5265656e7472616e637947756172643a207265656e7472616e742063616c6c00600082015250565b60006138b4601f83612536565b91506138bf8261387e565b602082019050919050565b600060208201905081810360008301526138e3816138a7565b9050919050565b7f4e487b7100000000000000000000000000000000000000000000000000000000600052602160045260246000fd5b7f45434453413a20696e76616c6964207369676e61747572650000000000000000600082015250565b600061394f601883612536565b915061395a82613919565b602082019050919050565b6000602082019050818103600083015261397e81613942565b9050919050565b7f45434453413a20696e76616c6964207369676e6174757265206c656e67746800600082015250565b60006139bb601f83612536565b91506139c682613985565b602082019050919050565b600060208201905081810360008301526139ea816139ae565b9050919050565b7f45434453413a20696e76616c6964207369676e6174757265202773272076616c60008201527f7565000000000000000000000000000000000000000000000000000000000000602082015250565b6000613a4d602283612536565b9150613a58826139f1565b604082019050919050565b60006020820190508181036000830152613a7c81613a40565b9050919050565b6000819050919050565b613a9681613a83565b82525050565b600060ff82169050919050565b613ab281613a9c565b82525050565b6000608082019050613acd6000830187613a8d565b613ada6020830186613aa9565b613ae76040830185613a8d565b613af46060830184613a8d565b9594505050505056fea264697066735822122093603b11b479310a3e96a43512f00f9ba01f3df5729836e3f7a6dc8886f0a35d64736f6c63430008130033",
  "linkReferences": {},
  "deployedLinkReferences": {}
}