{
  "_format": "hh-sol-artifact-1",
  "contractName": "CreedPreSaleContract",
  "sourceName": "contracts/CreedPreSaleContract.sol",
  "abi": [
    {
      "inputs": [
        {
          "internalType": "address",
          "name": "_usdt",
          "type": "address"
        },
        {
          "internalType": "address",
          "name": "_usdc",
          "type": "address"
        },
        {
          "internalType": "address",
          "name": "_saleToken",
          "type": "address"
        }
      ],
      "stateMutability": "nonpayable",
      "type": "constructor"
    },
    {
      "inputs": [],
      "name": "invalidUSDTPrice",
      "type": "error"
    },
    {
      "inputs": [],
      "name": "minimumAndMaximumLimit",
      "type": "error"
    },
    {
      "inputs": [],
      "name": "pleaseSendTokenPrice",
      "type": "error"
    },
    {
      "inputs": [],
      "name": "roundSupplyLimitExceed",
      "type": "error"
    },
    {
      "inputs": [],
      "name": "waitForSale",
      "type": "error"
    },
    {
      "anonymous": false,
      "inputs": [
        {
          "indexed": true,
          "internalType": "address",
          "name": "previousOwner",
          "type": "address"
        },
        {
          "indexed": true,
          "internalType": "address",
          "name": "newOwner",
          "type": "address"
        }
      ],
      "name": "OwnershipTransferred",
      "type": "event"
    },
    {
      "anonymous": false,
      "inputs": [
        {
          "indexed": false,
          "internalType": "address",
          "name": "_addr",
          "type": "address"
        },
        {
          "indexed": false,
          "internalType": "uint256",
          "name": "_amount",
          "type": "uint256"
        },
        {
          "indexed": false,
          "internalType": "string",
          "name": "_paymentType",
          "type": "string"
        }
      ],
      "name": "buyHistory",
      "type": "event"
    },
    {
      "inputs": [
        {
          "internalType": "uint256",
          "name": "_amount",
          "type": "uint256"
        }
      ],
      "name": "buyWithBNB",
      "outputs": [
        {
          "internalType": "bool",
          "name": "",
          "type": "bool"
        }
      ],
      "stateMutability": "payable",
      "type": "function"
    },
    {
      "inputs": [
        {
          "internalType": "uint256",
          "name": "_buyToken",
          "type": "uint256"
        },
        {
          "internalType": "bool",
          "name": "isUsdt",
          "type": "bool"
        }
      ],
      "name": "buyWithUSDT",
      "outputs": [
        {
          "internalType": "bool",
          "name": "",
          "type": "bool"
        }
      ],
      "stateMutability": "nonpayable",
      "type": "function"
    },
    {
      "inputs": [
        {
          "internalType": "uint256",
          "name": "_priceInUSDT",
          "type": "uint256"
        }
      ],
      "name": "changeSalePrice",
      "outputs": [],
      "stateMutability": "nonpayable",
      "type": "function"
    },
    {
      "inputs": [],
      "name": "getLatestUSDTPrice",
      "outputs": [
        {
          "internalType": "uint256",
          "name": "",
          "type": "uint256"
        }
      ],
      "stateMutability": "view",
      "type": "function"
    },
    {
      "inputs": [],
      "name": "isSale",
      "outputs": [
        {
          "internalType": "bool",
          "name": "",
          "type": "bool"
        }
      ],
      "stateMutability": "view",
      "type": "function"
    },
    {
      "inputs": [],
      "name": "owner",
      "outputs": [
        {
          "internalType": "address",
          "name": "",
          "type": "address"
        }
      ],
      "stateMutability": "view",
      "type": "function"
    },
    {
      "inputs": [],
      "name": "raisedAmount",
      "outputs": [
        {
          "internalType": "uint256",
          "name": "",
          "type": "uint256"
        }
      ],
      "stateMutability": "view",
      "type": "function"
    },
    {
      "inputs": [],
      "name": "renounceOwnership",
      "outputs": [],
      "stateMutability": "nonpayable",
      "type": "function"
    },
    {
      "inputs": [],
      "name": "salePrice",
      "outputs": [
        {
          "internalType": "uint256",
          "name": "",
          "type": "uint256"
        }
      ],
      "stateMutability": "view",
      "type": "function"
    },
    {
      "inputs": [
        {
          "internalType": "uint256",
          "name": "_amount",
          "type": "uint256"
        }
      ],
      "name": "sellTokenInETHPrice",
      "outputs": [
        {
          "internalType": "uint256",
          "name": "",
          "type": "uint256"
        }
      ],
      "stateMutability": "view",
      "type": "function"
    },
    {
      "inputs": [
        {
          "internalType": "uint256",
          "name": "_amount",
          "type": "uint256"
        }
      ],
      "name": "sellTokenInUDSTPrice",
      "outputs": [
        {
          "internalType": "uint256",
          "name": "",
          "type": "uint256"
        }
      ],
      "stateMutability": "view",
      "type": "function"
    },
    {
      "inputs": [],
      "name": "startTheSale",
      "outputs": [],
      "stateMutability": "nonpayable",
      "type": "function"
    },
    {
      "inputs": [
        {
          "internalType": "address",
          "name": "newOwner",
          "type": "address"
        }
      ],
      "name": "transferOwnership",
      "outputs": [],
      "stateMutability": "nonpayable",
      "type": "function"
    },
    {
      "inputs": [
        {
          "internalType": "uint256",
          "name": "_amount",
          "type": "uint256"
        }
      ],
      "name": "withdrawTokens",
      "outputs": [
        {
          "internalType": "bool",
          "name": "",
          "type": "bool"
        }
      ],
      "stateMutability": "nonpayable",
      "type": "function"
    }
  ],
  "bytecode": "0x60806040523480156200001157600080fd5b5060405162001e5738038062001e57833981810160405281019062000037919062000268565b620000576200004b6200013260201b60201c565b6200013a60201b60201c565b82600360006101000a81548173ffffffffffffffffffffffffffffffffffffffff021916908373ffffffffffffffffffffffffffffffffffffffff16021790555081600460006101000a81548173ffffffffffffffffffffffffffffffffffffffff021916908373ffffffffffffffffffffffffffffffffffffffff16021790555080600560006101000a81548173ffffffffffffffffffffffffffffffffffffffff021916908373ffffffffffffffffffffffffffffffffffffffff16021790555067016345785d8a0000600181905550505050620002c4565b600033905090565b60008060009054906101000a900473ffffffffffffffffffffffffffffffffffffffff169050816000806101000a81548173ffffffffffffffffffffffffffffffffffffffff021916908373ffffffffffffffffffffffffffffffffffffffff1602179055508173ffffffffffffffffffffffffffffffffffffffff168173ffffffffffffffffffffffffffffffffffffffff167f8be0079c531659141344cd1fd0a4f28419497f9722a3daafe3b4186f6b6457e060405160405180910390a35050565b600080fd5b600073ffffffffffffffffffffffffffffffffffffffff82169050919050565b6000620002308262000203565b9050919050565b620002428162000223565b81146200024e57600080fd5b50565b600081519050620002628162000237565b92915050565b600080600060608486031215620002845762000283620001fe565b5b6000620002948682870162000251565b9350506020620002a78682870162000251565b9250506040620002ba8682870162000251565b9150509250925092565b611b8380620002d46000396000f3fe6080604052600436106100dd5760003560e01c8063b56208961161007f578063cf28a78411610059578063cf28a784146102a1578063f2fde38b146102de578063f51f96dd14610307578063f8c1c18614610332576100dd565b8063b56208961461021d578063c3333dfb14610246578063c59ee1dc14610276576100dd565b8063715018a6116100bb578063715018a6146101995780638da5cb5b146101b05780638de2637b146101db57806398dd36bf146101f2576100dd565b8063136021d9146100e2578063315a095d1461011f578063582788181461015c575b600080fd5b3480156100ee57600080fd5b5061010960048036038101906101049190611353565b61035d565b60405161011691906113a2565b60405180910390f35b34801561012b57600080fd5b50610146600480360381019061014191906113bd565b610ac0565b60405161015391906113a2565b60405180910390f35b34801561016857600080fd5b50610183600480360381019061017e91906113bd565b610b7b565b60405161019091906113f9565b60405180910390f35b3480156101a557600080fd5b506101ae610baa565b005b3480156101bc57600080fd5b506101c5610bbe565b6040516101d29190611455565b60405180910390f35b3480156101e757600080fd5b506101f0610be7565b005b3480156101fe57600080fd5b50610207610c5c565b60405161021491906113f9565b60405180910390f35b34801561022957600080fd5b50610244600480360381019061023f91906113bd565b610d2f565b005b610260600480360381019061025b91906113bd565b610d84565b60405161026d91906113a2565b60405180910390f35b34801561028257600080fd5b5061028b611095565b60405161029891906113f9565b60405180910390f35b3480156102ad57600080fd5b506102c860048036038101906102c391906113bd565b61109b565b6040516102d591906113f9565b60405180910390f35b3480156102ea57600080fd5b506103056004803603810190610300919061149c565b6110c0565b005b34801561031357600080fd5b5061031c611143565b60405161032991906113f9565b60405180910390f35b34801561033e57600080fd5b50610347611149565b60405161035491906113a2565b60405180910390f35b60008060149054906101000a900460ff166103a4576040517f2d919c4a00000000000000000000000000000000000000000000000000000000815260040160405180910390fd5b60006103af84610b7b565b9050670de0b6b3a76400008110806103cf5750683635c9adc5dea0000081115b15610406576040517f35debf6d00000000000000000000000000000000000000000000000000000000815260040160405180910390fd5b82156107655783600560009054906101000a900473ffffffffffffffffffffffffffffffffffffffff1673ffffffffffffffffffffffffffffffffffffffff166370a08231306040518263ffffffff1660e01b81526004016104689190611455565b602060405180830381865afa158015610485573d6000803e3d6000fd5b505050506040513d601f19601f820116820180604052508101906104a991906114de565b10156104e1576040517f9210988b00000000000000000000000000000000000000000000000000000000815260040160405180910390fd5b6000600360009054906101000a900473ffffffffffffffffffffffffffffffffffffffff1673ffffffffffffffffffffffffffffffffffffffff1663dd62ed3e33306040518363ffffffff1660e01b815260040161054092919061150b565b602060405180830381865afa15801561055d573d6000803e3d6000fd5b505050506040513d601f19601f8201168201806040525081019061058191906114de565b9050808210156105bd576040517f8bbdc31c00000000000000000000000000000000000000000000000000000000815260040160405180910390fd5b600360009054906101000a900473ffffffffffffffffffffffffffffffffffffffff1673ffffffffffffffffffffffffffffffffffffffff166323b872dd33610604610bbe565b856040518463ffffffff1660e01b815260040161062393929190611534565b6020604051808303816000875af1158015610642573d6000803e3d6000fd5b505050506040513d601f19601f820116820180604052508101906106669190611580565b50600560009054906101000a900473ffffffffffffffffffffffffffffffffffffffff1673ffffffffffffffffffffffffffffffffffffffff1663a9059cbb33876040518363ffffffff1660e01b81526004016106c49291906115ad565b6020604051808303816000875af11580156106e3573d6000803e3d6000fd5b505050506040513d601f19601f820116820180604052508101906107079190611580565b50816002600082825461071a9190611605565b925050819055507f0371644b355388a624a6177b002ed35bc804509fdde155c58472d42bd1ce3d083386604051610752929190611696565b60405180910390a1600192505050610aba565b83600560009054906101000a900473ffffffffffffffffffffffffffffffffffffffff1673ffffffffffffffffffffffffffffffffffffffff166370a08231306040518263ffffffff1660e01b81526004016107c19190611455565b602060405180830381865afa1580156107de573d6000803e3d6000fd5b505050506040513d601f19601f8201168201806040525081019061080291906114de565b101561083a576040517f9210988b00000000000000000000000000000000000000000000000000000000815260040160405180910390fd5b6000600460009054906101000a900473ffffffffffffffffffffffffffffffffffffffff1673ffffffffffffffffffffffffffffffffffffffff1663dd62ed3e33306040518363ffffffff1660e01b815260040161089992919061150b565b602060405180830381865afa1580156108b6573d6000803e3d6000fd5b505050506040513d601f19601f820116820180604052508101906108da91906114de565b905080821015610916576040517f8bbdc31c00000000000000000000000000000000000000000000000000000000815260040160405180910390fd5b600460009054906101000a900473ffffffffffffffffffffffffffffffffffffffff1673ffffffffffffffffffffffffffffffffffffffff166323b872dd3361095d610bbe565b856040518463ffffffff1660e01b815260040161097c93929190611534565b6020604051808303816000875af115801561099b573d6000803e3d6000fd5b505050506040513d601f19601f820116820180604052508101906109bf9190611580565b50600560009054906101000a900473ffffffffffffffffffffffffffffffffffffffff1673ffffffffffffffffffffffffffffffffffffffff1663a9059cbb33876040518363ffffffff1660e01b8152600401610a1d9291906115ad565b6020604051808303816000875af1158015610a3c573d6000803e3d6000fd5b505050506040513d601f19601f82011682018060405250810190610a609190611580565b508160026000828254610a739190611605565b925050819055507f0371644b355388a624a6177b002ed35bc804509fdde155c58472d42bd1ce3d083386604051610aab92919061171e565b60405180910390a16001925050505b92915050565b6000610aca61115c565b600560009054906101000a900473ffffffffffffffffffffffffffffffffffffffff1673ffffffffffffffffffffffffffffffffffffffff1663a9059cbb610b10610bbe565b846040518363ffffffff1660e01b8152600401610b2e9291906115ad565b6020604051808303816000875af1158015610b4d573d6000803e3d6000fd5b505050506040513d601f19601f82011682018060405250810190610b719190611580565b5060019050919050565b600080670de0b6b3a764000083600154610b95919061175a565b610b9f91906117cb565b905080915050919050565b610bb261115c565b610bbc60006111da565b565b60008060009054906101000a900473ffffffffffffffffffffffffffffffffffffffff16905090565b610bef61115c565b600060149054906101000a900460ff1615610c3f576040517f08c379a0000000000000000000000000000000000000000000000000000000008152600401610c3690611848565b60405180910390fd5b6001600060146101000a81548160ff021916908315150217905550565b60008073d5c40f5144848bd4ef08a9605d860e727b991513905060008173ffffffffffffffffffffffffffffffffffffffff1663feaf968c6040518163ffffffff1660e01b815260040160a060405180830381865afa158015610cc3573d6000803e3d6000fd5b505050506040513d601f19601f82011682018060405250810190610ce791906118e0565b50505091505060008113610d27576040517f6ef30c4500000000000000000000000000000000000000000000000000000000815260040160405180910390fd5b809250505090565b610d3761115c565b60008111610d7a576040517f08c379a0000000000000000000000000000000000000000000000000000000008152600401610d71906119a7565b60405180910390fd5b8060018190555050565b60008060149054906101000a900460ff16610dcb576040517f2d919c4a00000000000000000000000000000000000000000000000000000000815260040160405180910390fd5b81600560009054906101000a900473ffffffffffffffffffffffffffffffffffffffff1673ffffffffffffffffffffffffffffffffffffffff166370a08231306040518263ffffffff1660e01b8152600401610e279190611455565b602060405180830381865afa158015610e44573d6000803e3d6000fd5b505050506040513d601f19601f82011682018060405250810190610e6891906114de565b1015610ea0576040517f9210988b00000000000000000000000000000000000000000000000000000000815260040160405180910390fd5b6000610eab83610b7b565b9050670de0b6b3a7640000811080610ecb5750683635c9adc5dea0000081115b15610f02576040517f35debf6d00000000000000000000000000000000000000000000000000000000815260040160405180910390fd5b6000610f0d8461109b565b905080341015610f49576040517f8bbdc31c00000000000000000000000000000000000000000000000000000000815260040160405180910390fd5b610f51610bbe565b73ffffffffffffffffffffffffffffffffffffffff166108fc349081150290604051600060405180830381858888f19350505050158015610f96573d6000803e3d6000fd5b50600560009054906101000a900473ffffffffffffffffffffffffffffffffffffffff1673ffffffffffffffffffffffffffffffffffffffff1663a9059cbb33866040518363ffffffff1660e01b8152600401610ff49291906115ad565b6020604051808303816000875af1158015611013573d6000803e3d6000fd5b505050506040513d601f19601f820116820180604052508101906110379190611580565b50816002600082825461104a9190611605565b925050819055507f0371644b355388a624a6177b002ed35bc804509fdde155c58472d42bd1ce3d083385604051611082929190611a13565b60405180910390a1600192505050919050565b60025481565b6000806110a783610b7b565b905060006110b48261129e565b90508092505050919050565b6110c861115c565b600073ffffffffffffffffffffffffffffffffffffffff168173ffffffffffffffffffffffffffffffffffffffff1603611137576040517f08c379a000000000000000000000000000000000000000000000000000000000815260040161112e90611ac1565b60405180910390fd5b611140816111da565b50565b60015481565b600060149054906101000a900460ff1681565b6111646112d8565b73ffffffffffffffffffffffffffffffffffffffff16611182610bbe565b73ffffffffffffffffffffffffffffffffffffffff16146111d8576040517f08c379a00000000000000000000000000000000000000000000000000000000081526004016111cf90611b2d565b60405180910390fd5b565b60008060009054906101000a900473ffffffffffffffffffffffffffffffffffffffff169050816000806101000a81548173ffffffffffffffffffffffffffffffffffffffff021916908373ffffffffffffffffffffffffffffffffffffffff1602179055508173ffffffffffffffffffffffffffffffffffffffff168173ffffffffffffffffffffffffffffffffffffffff167f8be0079c531659141344cd1fd0a4f28419497f9722a3daafe3b4186f6b6457e060405160405180910390a35050565b600080670de0b6b3a7640000836112b591906117cb565b90506000816112c2610c5c565b6112cc919061175a565b90508092505050919050565b600033905090565b600080fd5b6000819050919050565b6112f8816112e5565b811461130357600080fd5b50565b600081359050611315816112ef565b92915050565b60008115159050919050565b6113308161131b565b811461133b57600080fd5b50565b60008135905061134d81611327565b92915050565b6000806040838503121561136a576113696112e0565b5b600061137885828601611306565b92505060206113898582860161133e565b9150509250929050565b61139c8161131b565b82525050565b60006020820190506113b76000830184611393565b92915050565b6000602082840312156113d3576113d26112e0565b5b60006113e184828501611306565b91505092915050565b6113f3816112e5565b82525050565b600060208201905061140e60008301846113ea565b92915050565b600073ffffffffffffffffffffffffffffffffffffffff82169050919050565b600061143f82611414565b9050919050565b61144f81611434565b82525050565b600060208201905061146a6000830184611446565b92915050565b61147981611434565b811461148457600080fd5b50565b60008135905061149681611470565b92915050565b6000602082840312156114b2576114b16112e0565b5b60006114c084828501611487565b91505092915050565b6000815190506114d8816112ef565b92915050565b6000602082840312156114f4576114f36112e0565b5b6000611502848285016114c9565b91505092915050565b60006040820190506115206000830185611446565b61152d6020830184611446565b9392505050565b60006060820190506115496000830186611446565b6115566020830185611446565b61156360408301846113ea565b949350505050565b60008151905061157a81611327565b92915050565b600060208284031215611596576115956112e0565b5b60006115a48482850161156b565b91505092915050565b60006040820190506115c26000830185611446565b6115cf60208301846113ea565b9392505050565b7f4e487b7100000000000000000000000000000000000000000000000000000000600052601160045260246000fd5b6000611610826112e5565b915061161b836112e5565b9250828201905080821115611633576116326115d6565b5b92915050565b600082825260208201905092915050565b7f5553445400000000000000000000000000000000000000000000000000000000600082015250565b6000611680600483611639565b915061168b8261164a565b602082019050919050565b60006060820190506116ab6000830185611446565b6116b860208301846113ea565b81810360408301526116c981611673565b90509392505050565b7f5553444300000000000000000000000000000000000000000000000000000000600082015250565b6000611708600483611639565b9150611713826116d2565b602082019050919050565b60006060820190506117336000830185611446565b61174060208301846113ea565b8181036040830152611751816116fb565b90509392505050565b6000611765826112e5565b9150611770836112e5565b925082820261177e816112e5565b91508282048414831517611795576117946115d6565b5b5092915050565b7f4e487b7100000000000000000000000000000000000000000000000000000000600052601260045260246000fd5b60006117d6826112e5565b91506117e1836112e5565b9250826117f1576117f061179c565b5b828204905092915050565b7f616c726561647920537461727465640000000000000000000000000000000000600082015250565b6000611832600f83611639565b915061183d826117fc565b602082019050919050565b6000602082019050818103600083015261186181611825565b9050919050565b600069ffffffffffffffffffff82169050919050565b61188781611868565b811461189257600080fd5b50565b6000815190506118a48161187e565b92915050565b6000819050919050565b6118bd816118aa565b81146118c857600080fd5b50565b6000815190506118da816118b4565b92915050565b600080600080600060a086880312156118fc576118fb6112e0565b5b600061190a88828901611895565b955050602061191b888289016118cb565b945050604061192c888289016114c9565b935050606061193d888289016114c9565b925050608061194e88828901611895565b9150509295509295909350565b7f5072696365206d7573742062652067726561746572207468616e205a65726f00600082015250565b6000611991601f83611639565b915061199c8261195b565b602082019050919050565b600060208201905081810360008301526119c081611984565b9050919050565b7f424e420000000000000000000000000000000000000000000000000000000000600082015250565b60006119fd600383611639565b9150611a08826119c7565b602082019050919050565b6000606082019050611a286000830185611446565b611a3560208301846113ea565b8181036040830152611a46816119f0565b90509392505050565b7f4f776e61626c653a206e6577206f776e657220697320746865207a65726f206160008201527f6464726573730000000000000000000000000000000000000000000000000000602082015250565b6000611aab602683611639565b9150611ab682611a4f565b604082019050919050565b60006020820190508181036000830152611ada81611a9e565b9050919050565b7f4f776e61626c653a2063616c6c6572206973206e6f7420746865206f776e6572600082015250565b6000611b17602083611639565b9150611b2282611ae1565b602082019050919050565b60006020820190508181036000830152611b4681611b0a565b905091905056fea2646970667358221220440deec92f0990f993e09d2d64afdda93f87553622cc69e3c0736476470bc5e364736f6c63430008130033",
  "linkReferences": {},
  "deployedLinkReferences": {}
}