{
  "_format": "hh-sol-artifact-1",
  "contractName": "ForcePreSaleContract",
  "sourceName": "contracts/ForcePreSaleContract.sol",
  "abi": [
    {
      "inputs": [
        {
          "internalType": "address",
          "name": "_usdt",
          "type": "address"
        },
        {
          "internalType": "address",
          "name": "_usdc",
          "type": "address"
        },
        {
          "internalType": "address",
          "name": "_saleToken",
          "type": "address"
        }
      ],
      "stateMutability": "nonpayable",
      "type": "constructor"
    },
    {
      "inputs": [],
      "name": "invalidUSDTPrice",
      "type": "error"
    },
    {
      "inputs": [],
      "name": "minimumAndMaximumLimit",
      "type": "error"
    },
    {
      "inputs": [],
      "name": "pleaseSendTokenPrice",
      "type": "error"
    },
    {
      "inputs": [],
      "name": "roundSupplyLimitExceed",
      "type": "error"
    },
    {
      "inputs": [],
      "name": "waitForSale",
      "type": "error"
    },
    {
      "anonymous": false,
      "inputs": [
        {
          "indexed": true,
          "internalType": "address",
          "name": "previousOwner",
          "type": "address"
        },
        {
          "indexed": true,
          "internalType": "address",
          "name": "newOwner",
          "type": "address"
        }
      ],
      "name": "OwnershipTransferred",
      "type": "event"
    },
    {
      "anonymous": false,
      "inputs": [
        {
          "indexed": false,
          "internalType": "address",
          "name": "_addr",
          "type": "address"
        },
        {
          "indexed": false,
          "internalType": "uint256",
          "name": "_amount",
          "type": "uint256"
        },
        {
          "indexed": false,
          "internalType": "string",
          "name": "_paymentType",
          "type": "string"
        }
      ],
      "name": "buyHistory",
      "type": "event"
    },
    {
      "inputs": [
        {
          "internalType": "uint256",
          "name": "_amount",
          "type": "uint256"
        }
      ],
      "name": "buyWithETH",
      "outputs": [
        {
          "internalType": "bool",
          "name": "",
          "type": "bool"
        }
      ],
      "stateMutability": "payable",
      "type": "function"
    },
    {
      "inputs": [
        {
          "internalType": "uint256",
          "name": "_buyToken",
          "type": "uint256"
        },
        {
          "internalType": "bool",
          "name": "isUsdt",
          "type": "bool"
        }
      ],
      "name": "buyWithUSDT",
      "outputs": [
        {
          "internalType": "bool",
          "name": "",
          "type": "bool"
        }
      ],
      "stateMutability": "nonpayable",
      "type": "function"
    },
    {
      "inputs": [
        {
          "internalType": "uint256",
          "name": "_priceInUSDT",
          "type": "uint256"
        }
      ],
      "name": "changeSalePrice",
      "outputs": [],
      "stateMutability": "nonpayable",
      "type": "function"
    },
    {
      "inputs": [],
      "name": "getLatestUSDTPrice",
      "outputs": [
        {
          "internalType": "uint256",
          "name": "",
          "type": "uint256"
        }
      ],
      "stateMutability": "view",
      "type": "function"
    },
    {
      "inputs": [],
      "name": "isSale",
      "outputs": [
        {
          "internalType": "bool",
          "name": "",
          "type": "bool"
        }
      ],
      "stateMutability": "view",
      "type": "function"
    },
    {
      "inputs": [],
      "name": "owner",
      "outputs": [
        {
          "internalType": "address",
          "name": "",
          "type": "address"
        }
      ],
      "stateMutability": "view",
      "type": "function"
    },
    {
      "inputs": [],
      "name": "raisedAmount",
      "outputs": [
        {
          "internalType": "uint256",
          "name": "",
          "type": "uint256"
        }
      ],
      "stateMutability": "view",
      "type": "function"
    },
    {
      "inputs": [],
      "name": "renounceOwnership",
      "outputs": [],
      "stateMutability": "nonpayable",
      "type": "function"
    },
    {
      "inputs": [],
      "name": "salePrice",
      "outputs": [
        {
          "internalType": "uint256",
          "name": "",
          "type": "uint256"
        }
      ],
      "stateMutability": "view",
      "type": "function"
    },
    {
      "inputs": [
        {
          "internalType": "uint256",
          "name": "_amount",
          "type": "uint256"
        },
        {
          "internalType": "uint256",
          "name": "_roundPrice",
          "type": "uint256"
        }
      ],
      "name": "sellTokenInETHPrice",
      "outputs": [
        {
          "internalType": "uint256",
          "name": "",
          "type": "uint256"
        }
      ],
      "stateMutability": "view",
      "type": "function"
    },
    {
      "inputs": [
        {
          "internalType": "uint256",
          "name": "_amount",
          "type": "uint256"
        },
        {
          "internalType": "uint256",
          "name": "_roundPrice",
          "type": "uint256"
        }
      ],
      "name": "sellTokenInUDSTPrice",
      "outputs": [
        {
          "internalType": "uint256",
          "name": "",
          "type": "uint256"
        }
      ],
      "stateMutability": "view",
      "type": "function"
    },
    {
      "inputs": [],
      "name": "startTheSale",
      "outputs": [],
      "stateMutability": "nonpayable",
      "type": "function"
    },
    {
      "inputs": [
        {
          "internalType": "address",
          "name": "newOwner",
          "type": "address"
        }
      ],
      "name": "transferOwnership",
      "outputs": [],
      "stateMutability": "nonpayable",
      "type": "function"
    },
    {
      "inputs": [
        {
          "internalType": "uint256",
          "name": "_amount",
          "type": "uint256"
        }
      ],
      "name": "withdrawTokens",
      "outputs": [
        {
          "internalType": "bool",
          "name": "",
          "type": "bool"
        }
      ],
      "stateMutability": "nonpayable",
      "type": "function"
    }
  ],
  "bytecode": "0x608060405264e8d4a510006001553480156200001a57600080fd5b5060405162001ee438038062001ee483398181016040528101906200004091906200026c565b62000060620000546200013660201b60201c565b6200013e60201b60201c565b82600460006101000a81548173ffffffffffffffffffffffffffffffffffffffff021916908373ffffffffffffffffffffffffffffffffffffffff16021790555081600560006101000a81548173ffffffffffffffffffffffffffffffffffffffff021916908373ffffffffffffffffffffffffffffffffffffffff16021790555080600660006101000a81548173ffffffffffffffffffffffffffffffffffffffff021916908373ffffffffffffffffffffffffffffffffffffffff160217905550620186a0600281905550505050620002c8565b600033905090565b60008060009054906101000a900473ffffffffffffffffffffffffffffffffffffffff169050816000806101000a81548173ffffffffffffffffffffffffffffffffffffffff021916908373ffffffffffffffffffffffffffffffffffffffff1602179055508173ffffffffffffffffffffffffffffffffffffffff168173ffffffffffffffffffffffffffffffffffffffff167f8be0079c531659141344cd1fd0a4f28419497f9722a3daafe3b4186f6b6457e060405160405180910390a35050565b600080fd5b600073ffffffffffffffffffffffffffffffffffffffff82169050919050565b6000620002348262000207565b9050919050565b620002468162000227565b81146200025257600080fd5b50565b60008151905062000266816200023b565b92915050565b60008060006060848603121562000288576200028762000202565b5b6000620002988682870162000255565b9350506020620002ab8682870162000255565b9250506040620002be8682870162000255565b9150509250925092565b611c0c80620002d86000396000f3fe6080604052600436106100dd5760003560e01c806398dd36bf1161007f578063c59ee1dc11610059578063c59ee1dc146102b3578063f2fde38b146102de578063f51f96dd14610307578063f8c1c18614610332576100dd565b806398dd36bf14610222578063b56208961461024d578063ba0dc0cd14610276576100dd565b8063715018a6116100bb578063715018a6146101995780638da5cb5b146101b05780638de2637b146101db57806394dc9cf3146101f2576100dd565b8063136021d9146100e2578063315a095d1461011f5780634184bcce1461015c575b600080fd5b3480156100ee57600080fd5b506101096004803603810190610104919061139c565b61035d565b60405161011691906113eb565b60405180910390f35b34801561012b57600080fd5b5061014660048036038101906101419190611406565b610aba565b60405161015391906113eb565b60405180910390f35b34801561016857600080fd5b50610183600480360381019061017e9190611433565b610b75565b6040516101909190611482565b60405180910390f35b3480156101a557600080fd5b506101ae610bc6565b005b3480156101bc57600080fd5b506101c5610bda565b6040516101d291906114de565b60405180910390f35b3480156101e757600080fd5b506101f0610c03565b005b61020c60048036038101906102079190611406565b610c78565b60405161021991906113eb565b60405180910390f35b34801561022e57600080fd5b50610237610f86565b6040516102449190611482565b60405180910390f35b34801561025957600080fd5b50610274600480360381019061026f9190611406565b611059565b005b34801561028257600080fd5b5061029d60048036038101906102989190611433565b6110ae565b6040516102aa9190611482565b60405180910390f35b3480156102bf57600080fd5b506102c861113d565b6040516102d59190611482565b60405180910390f35b3480156102ea57600080fd5b5061030560048036038101906103009190611525565b611143565b005b34801561031357600080fd5b5061031c6111c6565b6040516103299190611482565b60405180910390f35b34801561033e57600080fd5b506103476111cc565b60405161035491906113eb565b60405180910390f35b60008060149054906101000a900460ff166103a4576040517f2d919c4a00000000000000000000000000000000000000000000000000000000815260040160405180910390fd5b60006103b284600254610b75565b9050620f42408110806103c9575064174876e80081115b15610400576040517f35debf6d00000000000000000000000000000000000000000000000000000000815260040160405180910390fd5b821561075f5783600660009054906101000a900473ffffffffffffffffffffffffffffffffffffffff1673ffffffffffffffffffffffffffffffffffffffff166370a08231306040518263ffffffff1660e01b815260040161046291906114de565b602060405180830381865afa15801561047f573d6000803e3d6000fd5b505050506040513d601f19601f820116820180604052508101906104a39190611567565b10156104db576040517f9210988b00000000000000000000000000000000000000000000000000000000815260040160405180910390fd5b6000600460009054906101000a900473ffffffffffffffffffffffffffffffffffffffff1673ffffffffffffffffffffffffffffffffffffffff1663dd62ed3e33306040518363ffffffff1660e01b815260040161053a929190611594565b602060405180830381865afa158015610557573d6000803e3d6000fd5b505050506040513d601f19601f8201168201806040525081019061057b9190611567565b9050808210156105b7576040517f8bbdc31c00000000000000000000000000000000000000000000000000000000815260040160405180910390fd5b600460009054906101000a900473ffffffffffffffffffffffffffffffffffffffff1673ffffffffffffffffffffffffffffffffffffffff166323b872dd336105fe610bda565b856040518463ffffffff1660e01b815260040161061d939291906115bd565b6020604051808303816000875af115801561063c573d6000803e3d6000fd5b505050506040513d601f19601f820116820180604052508101906106609190611609565b50600660009054906101000a900473ffffffffffffffffffffffffffffffffffffffff1673ffffffffffffffffffffffffffffffffffffffff1663a9059cbb33876040518363ffffffff1660e01b81526004016106be929190611636565b6020604051808303816000875af11580156106dd573d6000803e3d6000fd5b505050506040513d601f19601f820116820180604052508101906107019190611609565b508160036000828254610714919061168e565b925050819055507f0371644b355388a624a6177b002ed35bc804509fdde155c58472d42bd1ce3d08338660405161074c92919061171f565b60405180910390a1600192505050610ab4565b83600660009054906101000a900473ffffffffffffffffffffffffffffffffffffffff1673ffffffffffffffffffffffffffffffffffffffff166370a08231306040518263ffffffff1660e01b81526004016107bb91906114de565b602060405180830381865afa1580156107d8573d6000803e3d6000fd5b505050506040513d601f19601f820116820180604052508101906107fc9190611567565b1015610834576040517f9210988b00000000000000000000000000000000000000000000000000000000815260040160405180910390fd5b6000600560009054906101000a900473ffffffffffffffffffffffffffffffffffffffff1673ffffffffffffffffffffffffffffffffffffffff1663dd62ed3e33306040518363ffffffff1660e01b8152600401610893929190611594565b602060405180830381865afa1580156108b0573d6000803e3d6000fd5b505050506040513d601f19601f820116820180604052508101906108d49190611567565b905080821015610910576040517f8bbdc31c00000000000000000000000000000000000000000000000000000000815260040160405180910390fd5b600560009054906101000a900473ffffffffffffffffffffffffffffffffffffffff1673ffffffffffffffffffffffffffffffffffffffff166323b872dd33610957610bda565b856040518463ffffffff1660e01b8152600401610976939291906115bd565b6020604051808303816000875af1158015610995573d6000803e3d6000fd5b505050506040513d601f19601f820116820180604052508101906109b99190611609565b50600660009054906101000a900473ffffffffffffffffffffffffffffffffffffffff1673ffffffffffffffffffffffffffffffffffffffff1663a9059cbb33876040518363ffffffff1660e01b8152600401610a17929190611636565b6020604051808303816000875af1158015610a36573d6000803e3d6000fd5b505050506040513d601f19601f82011682018060405250810190610a5a9190611609565b508160036000828254610a6d919061168e565b925050819055507f0371644b355388a624a6177b002ed35bc804509fdde155c58472d42bd1ce3d083386604051610aa59291906117a7565b60405180910390a16001925050505b92915050565b6000610ac46111df565b600660009054906101000a900473ffffffffffffffffffffffffffffffffffffffff1673ffffffffffffffffffffffffffffffffffffffff1663a9059cbb610b0a610bda565b846040518363ffffffff1660e01b8152600401610b28929190611636565b6020604051808303816000875af1158015610b47573d6000803e3d6000fd5b505050506040513d601f19601f82011682018060405250810190610b6b9190611609565b5060019050919050565b60008060015483610b8691906117e3565b9050600064e8d4a51000670de0b6b3a76400008684610ba591906117e3565b610baf9190611854565b610bb99190611854565b9050809250505092915050565b610bce6111df565b610bd8600061125d565b565b60008060009054906101000a900473ffffffffffffffffffffffffffffffffffffffff16905090565b610c0b6111df565b600060149054906101000a900460ff1615610c5b576040517f08c379a0000000000000000000000000000000000000000000000000000000008152600401610c52906118d1565b60405180910390fd5b6001600060146101000a81548160ff021916908315150217905550565b60008060149054906101000a900460ff16610cbf576040517f2d919c4a00000000000000000000000000000000000000000000000000000000815260040160405180910390fd5b81600660009054906101000a900473ffffffffffffffffffffffffffffffffffffffff1673ffffffffffffffffffffffffffffffffffffffff166370a08231306040518263ffffffff1660e01b8152600401610d1b91906114de565b602060405180830381865afa158015610d38573d6000803e3d6000fd5b505050506040513d601f19601f82011682018060405250810190610d5c9190611567565b1015610d94576040517f9210988b00000000000000000000000000000000000000000000000000000000815260040160405180910390fd5b6000610da283600254610b75565b9050620f4240811080610db9575064174876e80081115b15610df0576040517f35debf6d00000000000000000000000000000000000000000000000000000000815260040160405180910390fd5b6000610dfe846002546110ae565b905080341015610e3a576040517f8bbdc31c00000000000000000000000000000000000000000000000000000000815260040160405180910390fd5b610e42610bda565b73ffffffffffffffffffffffffffffffffffffffff166108fc349081150290604051600060405180830381858888f19350505050158015610e87573d6000803e3d6000fd5b50600660009054906101000a900473ffffffffffffffffffffffffffffffffffffffff1673ffffffffffffffffffffffffffffffffffffffff1663a9059cbb33866040518363ffffffff1660e01b8152600401610ee5929190611636565b6020604051808303816000875af1158015610f04573d6000803e3d6000fd5b505050506040513d601f19601f82011682018060405250810190610f289190611609565b508160036000828254610f3b919061168e565b925050819055507f0371644b355388a624a6177b002ed35bc804509fdde155c58472d42bd1ce3d083385604051610f7392919061193d565b60405180910390a1600192505050919050565b60008073ee9f2375b4bdf6387aa8265dd4fb8f16512a1d46905060008173ffffffffffffffffffffffffffffffffffffffff1663feaf968c6040518163ffffffff1660e01b815260040160a060405180830381865afa158015610fed573d6000803e3d6000fd5b505050506040513d601f19601f8201168201806040525081019061101191906119f1565b50505091505060008113611051576040517f6ef30c4500000000000000000000000000000000000000000000000000000000815260040160405180910390fd5b809250505090565b6110616111df565b600081116110a4576040517f08c379a000000000000000000000000000000000000000000000000000000000815260040161109b90611ab8565b60405180910390fd5b8060028190555050565b600080600154836110bf91906117e3565b9050600064e8d4a51000670de0b6b3a764000086846110de91906117e3565b6110e89190611854565b6110f29190611854565b905060006001548261110491906117e3565b90506000670de0b6b3a76400008261111a610f86565b61112491906117e3565b61112e9190611854565b90508094505050505092915050565b60035481565b61114b6111df565b600073ffffffffffffffffffffffffffffffffffffffff168173ffffffffffffffffffffffffffffffffffffffff16036111ba576040517f08c379a00000000000000000000000000000000000000000000000000000000081526004016111b190611b4a565b60405180910390fd5b6111c38161125d565b50565b60025481565b600060149054906101000a900460ff1681565b6111e7611321565b73ffffffffffffffffffffffffffffffffffffffff16611205610bda565b73ffffffffffffffffffffffffffffffffffffffff161461125b576040517f08c379a000000000000000000000000000000000000000000000000000000000815260040161125290611bb6565b60405180910390fd5b565b60008060009054906101000a900473ffffffffffffffffffffffffffffffffffffffff169050816000806101000a81548173ffffffffffffffffffffffffffffffffffffffff021916908373ffffffffffffffffffffffffffffffffffffffff1602179055508173ffffffffffffffffffffffffffffffffffffffff168173ffffffffffffffffffffffffffffffffffffffff167f8be0079c531659141344cd1fd0a4f28419497f9722a3daafe3b4186f6b6457e060405160405180910390a35050565b600033905090565b600080fd5b6000819050919050565b6113418161132e565b811461134c57600080fd5b50565b60008135905061135e81611338565b92915050565b60008115159050919050565b61137981611364565b811461138457600080fd5b50565b60008135905061139681611370565b92915050565b600080604083850312156113b3576113b2611329565b5b60006113c18582860161134f565b92505060206113d285828601611387565b9150509250929050565b6113e581611364565b82525050565b600060208201905061140060008301846113dc565b92915050565b60006020828403121561141c5761141b611329565b5b600061142a8482850161134f565b91505092915050565b6000806040838503121561144a57611449611329565b5b60006114588582860161134f565b92505060206114698582860161134f565b9150509250929050565b61147c8161132e565b82525050565b60006020820190506114976000830184611473565b92915050565b600073ffffffffffffffffffffffffffffffffffffffff82169050919050565b60006114c88261149d565b9050919050565b6114d8816114bd565b82525050565b60006020820190506114f360008301846114cf565b92915050565b611502816114bd565b811461150d57600080fd5b50565b60008135905061151f816114f9565b92915050565b60006020828403121561153b5761153a611329565b5b600061154984828501611510565b91505092915050565b60008151905061156181611338565b92915050565b60006020828403121561157d5761157c611329565b5b600061158b84828501611552565b91505092915050565b60006040820190506115a960008301856114cf565b6115b660208301846114cf565b9392505050565b60006060820190506115d260008301866114cf565b6115df60208301856114cf565b6115ec6040830184611473565b949350505050565b60008151905061160381611370565b92915050565b60006020828403121561161f5761161e611329565b5b600061162d848285016115f4565b91505092915050565b600060408201905061164b60008301856114cf565b6116586020830184611473565b9392505050565b7f4e487b7100000000000000000000000000000000000000000000000000000000600052601160045260246000fd5b60006116998261132e565b91506116a48361132e565b92508282019050808211156116bc576116bb61165f565b5b92915050565b600082825260208201905092915050565b7f5553445400000000000000000000000000000000000000000000000000000000600082015250565b60006117096004836116c2565b9150611714826116d3565b602082019050919050565b600060608201905061173460008301856114cf565b6117416020830184611473565b8181036040830152611752816116fc565b90509392505050565b7f5553444300000000000000000000000000000000000000000000000000000000600082015250565b60006117916004836116c2565b915061179c8261175b565b602082019050919050565b60006060820190506117bc60008301856114cf565b6117c96020830184611473565b81810360408301526117da81611784565b90509392505050565b60006117ee8261132e565b91506117f98361132e565b92508282026118078161132e565b9150828204841483151761181e5761181d61165f565b5b5092915050565b7f4e487b7100000000000000000000000000000000000000000000000000000000600052601260045260246000fd5b600061185f8261132e565b915061186a8361132e565b92508261187a57611879611825565b5b828204905092915050565b7f616c726561647920537461727465640000000000000000000000000000000000600082015250565b60006118bb600f836116c2565b91506118c682611885565b602082019050919050565b600060208201905081810360008301526118ea816118ae565b9050919050565b7f4554480000000000000000000000000000000000000000000000000000000000600082015250565b60006119276003836116c2565b9150611932826118f1565b602082019050919050565b600060608201905061195260008301856114cf565b61195f6020830184611473565b81810360408301526119708161191a565b90509392505050565b600069ffffffffffffffffffff82169050919050565b61199881611979565b81146119a357600080fd5b50565b6000815190506119b58161198f565b92915050565b6000819050919050565b6119ce816119bb565b81146119d957600080fd5b50565b6000815190506119eb816119c5565b92915050565b600080600080600060a08688031215611a0d57611a0c611329565b5b6000611a1b888289016119a6565b9550506020611a2c888289016119dc565b9450506040611a3d88828901611552565b9350506060611a4e88828901611552565b9250506080611a5f888289016119a6565b9150509295509295909350565b7f5072696365206d7573742062652067726561746572207468616e205a65726f00600082015250565b6000611aa2601f836116c2565b9150611aad82611a6c565b602082019050919050565b60006020820190508181036000830152611ad181611a95565b9050919050565b7f4f776e61626c653a206e6577206f776e657220697320746865207a65726f206160008201527f6464726573730000000000000000000000000000000000000000000000000000602082015250565b6000611b346026836116c2565b9150611b3f82611ad8565b604082019050919050565b60006020820190508181036000830152611b6381611b27565b9050919050565b7f4f776e61626c653a2063616c6c6572206973206e6f7420746865206f776e6572600082015250565b6000611ba06020836116c2565b9150611bab82611b6a565b602082019050919050565b60006020820190508181036000830152611bcf81611b93565b905091905056fea2646970667358221220b8eafd6febfa2e2762e5238fdea8aa642c0aa48acece08a9cfbdafc1d70cc26e64736f6c63430008140033",
  "linkReferences": {},
  "deployedLinkReferences": {}
}