{
  "_format": "hh-sol-artifact-1",
  "contractName": "ForcePreSaleContract",
  "sourceName": "contracts/ForcePreSaleContract.sol",
  "abi": [
    {
      "inputs": [
        {
          "internalType": "address",
          "name": "_usdt",
          "type": "address"
        },
        {
          "internalType": "address",
          "name": "_usdc",
          "type": "address"
        },
        {
          "internalType": "address",
          "name": "_saleToken",
          "type": "address"
        }
      ],
      "stateMutability": "nonpayable",
      "type": "constructor"
    },
    {
      "inputs": [],
      "name": "minimumAndMaximumLimit",
      "type": "error"
    },
    {
      "inputs": [],
      "name": "pleaseSendTokenPrice",
      "type": "error"
    },
    {
      "inputs": [],
      "name": "roundSupplyLimitExceed",
      "type": "error"
    },
    {
      "inputs": [],
      "name": "waitForSale",
      "type": "error"
    },
    {
      "anonymous": false,
      "inputs": [
        {
          "indexed": true,
          "internalType": "address",
          "name": "previousOwner",
          "type": "address"
        },
        {
          "indexed": true,
          "internalType": "address",
          "name": "newOwner",
          "type": "address"
        }
      ],
      "name": "OwnershipTransferred",
      "type": "event"
    },
    {
      "anonymous": false,
      "inputs": [
        {
          "indexed": false,
          "internalType": "address",
          "name": "_addr",
          "type": "address"
        },
        {
          "indexed": false,
          "internalType": "uint256",
          "name": "_amount",
          "type": "uint256"
        },
        {
          "indexed": false,
          "internalType": "string",
          "name": "_paymentType",
          "type": "string"
        }
      ],
      "name": "buyHistory",
      "type": "event"
    },
    {
      "inputs": [
        {
          "internalType": "uint256",
          "name": "_amount",
          "type": "uint256"
        }
      ],
      "name": "buyWithBNB",
      "outputs": [
        {
          "internalType": "bool",
          "name": "",
          "type": "bool"
        }
      ],
      "stateMutability": "payable",
      "type": "function"
    },
    {
      "inputs": [
        {
          "internalType": "uint256",
          "name": "_buyToken",
          "type": "uint256"
        },
        {
          "internalType": "bool",
          "name": "isUsdt",
          "type": "bool"
        }
      ],
      "name": "buyWithUSDT",
      "outputs": [
        {
          "internalType": "bool",
          "name": "",
          "type": "bool"
        }
      ],
      "stateMutability": "nonpayable",
      "type": "function"
    },
    {
      "inputs": [
        {
          "internalType": "uint256",
          "name": "_priceInUSDT",
          "type": "uint256"
        }
      ],
      "name": "changeSalePrice",
      "outputs": [],
      "stateMutability": "nonpayable",
      "type": "function"
    },
    {
      "inputs": [],
      "name": "getLatestUSDTPrice",
      "outputs": [
        {
          "internalType": "uint256",
          "name": "",
          "type": "uint256"
        }
      ],
      "stateMutability": "view",
      "type": "function"
    },
    {
      "inputs": [],
      "name": "isSale",
      "outputs": [
        {
          "internalType": "bool",
          "name": "",
          "type": "bool"
        }
      ],
      "stateMutability": "view",
      "type": "function"
    },
    {
      "inputs": [],
      "name": "owner",
      "outputs": [
        {
          "internalType": "address",
          "name": "",
          "type": "address"
        }
      ],
      "stateMutability": "view",
      "type": "function"
    },
    {
      "inputs": [],
      "name": "raisedAmount",
      "outputs": [
        {
          "internalType": "uint256",
          "name": "",
          "type": "uint256"
        }
      ],
      "stateMutability": "view",
      "type": "function"
    },
    {
      "inputs": [],
      "name": "renounceOwnership",
      "outputs": [],
      "stateMutability": "nonpayable",
      "type": "function"
    },
    {
      "inputs": [],
      "name": "salePrice",
      "outputs": [
        {
          "internalType": "uint256",
          "name": "",
          "type": "uint256"
        }
      ],
      "stateMutability": "view",
      "type": "function"
    },
    {
      "inputs": [
        {
          "internalType": "uint256",
          "name": "_amount",
          "type": "uint256"
        },
        {
          "internalType": "uint256",
          "name": "_roundPrice",
          "type": "uint256"
        }
      ],
      "name": "sellTokenInETHPrice",
      "outputs": [
        {
          "internalType": "uint256",
          "name": "",
          "type": "uint256"
        }
      ],
      "stateMutability": "view",
      "type": "function"
    },
    {
      "inputs": [
        {
          "internalType": "uint256",
          "name": "_amount",
          "type": "uint256"
        },
        {
          "internalType": "uint256",
          "name": "_roundPrice",
          "type": "uint256"
        }
      ],
      "name": "sellTokenInUDSTPrice",
      "outputs": [
        {
          "internalType": "uint256",
          "name": "",
          "type": "uint256"
        }
      ],
      "stateMutability": "view",
      "type": "function"
    },
    {
      "inputs": [],
      "name": "startTheSale",
      "outputs": [],
      "stateMutability": "nonpayable",
      "type": "function"
    },
    {
      "inputs": [
        {
          "internalType": "address",
          "name": "newOwner",
          "type": "address"
        }
      ],
      "name": "transferOwnership",
      "outputs": [],
      "stateMutability": "nonpayable",
      "type": "function"
    },
    {
      "inputs": [
        {
          "internalType": "uint256",
          "name": "_amount",
          "type": "uint256"
        }
      ],
      "name": "withdrawTokens",
      "outputs": [
        {
          "internalType": "bool",
          "name": "",
          "type": "bool"
        }
      ],
      "stateMutability": "nonpayable",
      "type": "function"
    }
  ],
  "bytecode": "0x608060405264e8d4a510006001553480156200001a57600080fd5b5060405162001d2b38038062001d2b83398181016040528101906200004091906200026c565b62000060620000546200013660201b60201c565b6200013e60201b60201c565b82600460006101000a81548173ffffffffffffffffffffffffffffffffffffffff021916908373ffffffffffffffffffffffffffffffffffffffff16021790555081600560006101000a81548173ffffffffffffffffffffffffffffffffffffffff021916908373ffffffffffffffffffffffffffffffffffffffff16021790555080600660006101000a81548173ffffffffffffffffffffffffffffffffffffffff021916908373ffffffffffffffffffffffffffffffffffffffff160217905550620186a0600281905550505050620002c8565b600033905090565b60008060009054906101000a900473ffffffffffffffffffffffffffffffffffffffff169050816000806101000a81548173ffffffffffffffffffffffffffffffffffffffff021916908373ffffffffffffffffffffffffffffffffffffffff1602179055508173ffffffffffffffffffffffffffffffffffffffff168173ffffffffffffffffffffffffffffffffffffffff167f8be0079c531659141344cd1fd0a4f28419497f9722a3daafe3b4186f6b6457e060405160405180910390a35050565b600080fd5b600073ffffffffffffffffffffffffffffffffffffffff82169050919050565b6000620002348262000207565b9050919050565b620002468162000227565b81146200025257600080fd5b50565b60008151905062000266816200023b565b92915050565b60008060006060848603121562000288576200028762000202565b5b6000620002988682870162000255565b9350506020620002ab8682870162000255565b9250506040620002be8682870162000255565b9150509250925092565b611a5380620002d86000396000f3fe6080604052600436106100dd5760003560e01c8063b56208961161007f578063c59ee1dc11610059578063c59ee1dc146102b3578063f2fde38b146102de578063f51f96dd14610307578063f8c1c18614610332576100dd565b8063b56208961461021d578063ba0dc0cd14610246578063c3333dfb14610283576100dd565b8063715018a6116100bb578063715018a6146101995780638da5cb5b146101b05780638de2637b146101db57806398dd36bf146101f2576100dd565b8063136021d9146100e2578063315a095d1461011f5780634184bcce1461015c575b600080fd5b3480156100ee57600080fd5b50610109600480360381019061010491906112d6565b61035d565b6040516101169190611325565b60405180910390f35b34801561012b57600080fd5b5061014660048036038101906101419190611340565b610ab9565b6040516101539190611325565b60405180910390f35b34801561016857600080fd5b50610183600480360381019061017e919061136d565b610b74565b60405161019091906113bc565b60405180910390f35b3480156101a557600080fd5b506101ae610bc5565b005b3480156101bc57600080fd5b506101c5610bd9565b6040516101d29190611418565b60405180910390f35b3480156101e757600080fd5b506101f0610c02565b005b3480156101fe57600080fd5b50610207610c77565b60405161021491906113bc565b60405180910390f35b34801561022957600080fd5b50610244600480360381019061023f9190611340565b610c86565b005b34801561025257600080fd5b5061026d6004803603810190610268919061136d565b610cdb565b60405161027a91906113bc565b60405180910390f35b61029d60048036038101906102989190611340565b610d6a565b6040516102aa9190611325565b60405180910390f35b3480156102bf57600080fd5b506102c8611077565b6040516102d591906113bc565b60405180910390f35b3480156102ea57600080fd5b506103056004803603810190610300919061145f565b61107d565b005b34801561031357600080fd5b5061031c611100565b60405161032991906113bc565b60405180910390f35b34801561033e57600080fd5b50610347611106565b6040516103549190611325565b60405180910390f35b60008060149054906101000a900460ff166103a4576040517f2d919c4a00000000000000000000000000000000000000000000000000000000815260040160405180910390fd5b60006103b284600254610b74565b9050620f42408110806103c85750633b9aca0081115b156103ff576040517f35debf6d00000000000000000000000000000000000000000000000000000000815260040160405180910390fd5b821561075e5783600660009054906101000a900473ffffffffffffffffffffffffffffffffffffffff1673ffffffffffffffffffffffffffffffffffffffff166370a08231306040518263ffffffff1660e01b81526004016104619190611418565b602060405180830381865afa15801561047e573d6000803e3d6000fd5b505050506040513d601f19601f820116820180604052508101906104a291906114a1565b10156104da576040517f9210988b00000000000000000000000000000000000000000000000000000000815260040160405180910390fd5b6000600460009054906101000a900473ffffffffffffffffffffffffffffffffffffffff1673ffffffffffffffffffffffffffffffffffffffff1663dd62ed3e33306040518363ffffffff1660e01b81526004016105399291906114ce565b602060405180830381865afa158015610556573d6000803e3d6000fd5b505050506040513d601f19601f8201168201806040525081019061057a91906114a1565b9050808210156105b6576040517f8bbdc31c00000000000000000000000000000000000000000000000000000000815260040160405180910390fd5b600460009054906101000a900473ffffffffffffffffffffffffffffffffffffffff1673ffffffffffffffffffffffffffffffffffffffff166323b872dd336105fd610bd9565b856040518463ffffffff1660e01b815260040161061c939291906114f7565b6020604051808303816000875af115801561063b573d6000803e3d6000fd5b505050506040513d601f19601f8201168201806040525081019061065f9190611543565b50600660009054906101000a900473ffffffffffffffffffffffffffffffffffffffff1673ffffffffffffffffffffffffffffffffffffffff1663a9059cbb33876040518363ffffffff1660e01b81526004016106bd929190611570565b6020604051808303816000875af11580156106dc573d6000803e3d6000fd5b505050506040513d601f19601f820116820180604052508101906107009190611543565b50816003600082825461071391906115c8565b925050819055507f0371644b355388a624a6177b002ed35bc804509fdde155c58472d42bd1ce3d08338660405161074b929190611659565b60405180910390a1600192505050610ab3565b83600660009054906101000a900473ffffffffffffffffffffffffffffffffffffffff1673ffffffffffffffffffffffffffffffffffffffff166370a08231306040518263ffffffff1660e01b81526004016107ba9190611418565b602060405180830381865afa1580156107d7573d6000803e3d6000fd5b505050506040513d601f19601f820116820180604052508101906107fb91906114a1565b1015610833576040517f9210988b00000000000000000000000000000000000000000000000000000000815260040160405180910390fd5b6000600560009054906101000a900473ffffffffffffffffffffffffffffffffffffffff1673ffffffffffffffffffffffffffffffffffffffff1663dd62ed3e33306040518363ffffffff1660e01b81526004016108929291906114ce565b602060405180830381865afa1580156108af573d6000803e3d6000fd5b505050506040513d601f19601f820116820180604052508101906108d391906114a1565b90508082101561090f576040517f8bbdc31c00000000000000000000000000000000000000000000000000000000815260040160405180910390fd5b600560009054906101000a900473ffffffffffffffffffffffffffffffffffffffff1673ffffffffffffffffffffffffffffffffffffffff166323b872dd33610956610bd9565b856040518463ffffffff1660e01b8152600401610975939291906114f7565b6020604051808303816000875af1158015610994573d6000803e3d6000fd5b505050506040513d601f19601f820116820180604052508101906109b89190611543565b50600660009054906101000a900473ffffffffffffffffffffffffffffffffffffffff1673ffffffffffffffffffffffffffffffffffffffff1663a9059cbb33876040518363ffffffff1660e01b8152600401610a16929190611570565b6020604051808303816000875af1158015610a35573d6000803e3d6000fd5b505050506040513d601f19601f82011682018060405250810190610a599190611543565b508160036000828254610a6c91906115c8565b925050819055507f0371644b355388a624a6177b002ed35bc804509fdde155c58472d42bd1ce3d083386604051610aa49291906116e1565b60405180910390a16001925050505b92915050565b6000610ac3611119565b600660009054906101000a900473ffffffffffffffffffffffffffffffffffffffff1673ffffffffffffffffffffffffffffffffffffffff1663a9059cbb610b09610bd9565b846040518363ffffffff1660e01b8152600401610b27929190611570565b6020604051808303816000875af1158015610b46573d6000803e3d6000fd5b505050506040513d601f19601f82011682018060405250810190610b6a9190611543565b5060019050919050565b60008060015483610b85919061171d565b9050600064e8d4a51000670de0b6b3a76400008684610ba4919061171d565b610bae919061178e565b610bb8919061178e565b9050809250505092915050565b610bcd611119565b610bd76000611197565b565b60008060009054906101000a900473ffffffffffffffffffffffffffffffffffffffff16905090565b610c0a611119565b600060149054906101000a900460ff1615610c5a576040517f08c379a0000000000000000000000000000000000000000000000000000000008152600401610c519061180b565b60405180910390fd5b6001600060146101000a81548160ff021916908315150217905550565b6000660621151b851400905090565b610c8e611119565b60008111610cd1576040517f08c379a0000000000000000000000000000000000000000000000000000000008152600401610cc890611877565b60405180910390fd5b8060028190555050565b60008060015483610cec919061171d565b9050600064e8d4a51000670de0b6b3a76400008684610d0b919061171d565b610d15919061178e565b610d1f919061178e565b9050600060015482610d31919061171d565b90506000670de0b6b3a764000082610d47610c77565b610d51919061171d565b610d5b919061178e565b90508094505050505092915050565b60008060149054906101000a900460ff16610db1576040517f2d919c4a00000000000000000000000000000000000000000000000000000000815260040160405180910390fd5b81600660009054906101000a900473ffffffffffffffffffffffffffffffffffffffff1673ffffffffffffffffffffffffffffffffffffffff166370a08231306040518263ffffffff1660e01b8152600401610e0d9190611418565b602060405180830381865afa158015610e2a573d6000803e3d6000fd5b505050506040513d601f19601f82011682018060405250810190610e4e91906114a1565b1015610e86576040517f9210988b00000000000000000000000000000000000000000000000000000000815260040160405180910390fd5b6000610e9483600254610b74565b9050620f4240811080610eaa5750633b9aca0081115b15610ee1576040517f35debf6d00000000000000000000000000000000000000000000000000000000815260040160405180910390fd5b6000610eef84600254610cdb565b905080341015610f2b576040517f8bbdc31c00000000000000000000000000000000000000000000000000000000815260040160405180910390fd5b610f33610bd9565b73ffffffffffffffffffffffffffffffffffffffff166108fc349081150290604051600060405180830381858888f19350505050158015610f78573d6000803e3d6000fd5b50600660009054906101000a900473ffffffffffffffffffffffffffffffffffffffff1673ffffffffffffffffffffffffffffffffffffffff1663a9059cbb33866040518363ffffffff1660e01b8152600401610fd6929190611570565b6020604051808303816000875af1158015610ff5573d6000803e3d6000fd5b505050506040513d601f19601f820116820180604052508101906110199190611543565b50816003600082825461102c91906115c8565b925050819055507f0371644b355388a624a6177b002ed35bc804509fdde155c58472d42bd1ce3d0833856040516110649291906118e3565b60405180910390a1600192505050919050565b60035481565b611085611119565b600073ffffffffffffffffffffffffffffffffffffffff168173ffffffffffffffffffffffffffffffffffffffff16036110f4576040517f08c379a00000000000000000000000000000000000000000000000000000000081526004016110eb90611991565b60405180910390fd5b6110fd81611197565b50565b60025481565b600060149054906101000a900460ff1681565b61112161125b565b73ffffffffffffffffffffffffffffffffffffffff1661113f610bd9565b73ffffffffffffffffffffffffffffffffffffffff1614611195576040517f08c379a000000000000000000000000000000000000000000000000000000000815260040161118c906119fd565b60405180910390fd5b565b60008060009054906101000a900473ffffffffffffffffffffffffffffffffffffffff169050816000806101000a81548173ffffffffffffffffffffffffffffffffffffffff021916908373ffffffffffffffffffffffffffffffffffffffff1602179055508173ffffffffffffffffffffffffffffffffffffffff168173ffffffffffffffffffffffffffffffffffffffff167f8be0079c531659141344cd1fd0a4f28419497f9722a3daafe3b4186f6b6457e060405160405180910390a35050565b600033905090565b600080fd5b6000819050919050565b61127b81611268565b811461128657600080fd5b50565b60008135905061129881611272565b92915050565b60008115159050919050565b6112b38161129e565b81146112be57600080fd5b50565b6000813590506112d0816112aa565b92915050565b600080604083850312156112ed576112ec611263565b5b60006112fb85828601611289565b925050602061130c858286016112c1565b9150509250929050565b61131f8161129e565b82525050565b600060208201905061133a6000830184611316565b92915050565b60006020828403121561135657611355611263565b5b600061136484828501611289565b91505092915050565b6000806040838503121561138457611383611263565b5b600061139285828601611289565b92505060206113a385828601611289565b9150509250929050565b6113b681611268565b82525050565b60006020820190506113d160008301846113ad565b92915050565b600073ffffffffffffffffffffffffffffffffffffffff82169050919050565b6000611402826113d7565b9050919050565b611412816113f7565b82525050565b600060208201905061142d6000830184611409565b92915050565b61143c816113f7565b811461144757600080fd5b50565b60008135905061145981611433565b92915050565b60006020828403121561147557611474611263565b5b60006114838482850161144a565b91505092915050565b60008151905061149b81611272565b92915050565b6000602082840312156114b7576114b6611263565b5b60006114c58482850161148c565b91505092915050565b60006040820190506114e36000830185611409565b6114f06020830184611409565b9392505050565b600060608201905061150c6000830186611409565b6115196020830185611409565b61152660408301846113ad565b949350505050565b60008151905061153d816112aa565b92915050565b60006020828403121561155957611558611263565b5b60006115678482850161152e565b91505092915050565b60006040820190506115856000830185611409565b61159260208301846113ad565b9392505050565b7f4e487b7100000000000000000000000000000000000000000000000000000000600052601160045260246000fd5b60006115d382611268565b91506115de83611268565b92508282019050808211156115f6576115f5611599565b5b92915050565b600082825260208201905092915050565b7f5553445400000000000000000000000000000000000000000000000000000000600082015250565b60006116436004836115fc565b915061164e8261160d565b602082019050919050565b600060608201905061166e6000830185611409565b61167b60208301846113ad565b818103604083015261168c81611636565b90509392505050565b7f5553444300000000000000000000000000000000000000000000000000000000600082015250565b60006116cb6004836115fc565b91506116d682611695565b602082019050919050565b60006060820190506116f66000830185611409565b61170360208301846113ad565b8181036040830152611714816116be565b90509392505050565b600061172882611268565b915061173383611268565b925082820261174181611268565b9150828204841483151761175857611757611599565b5b5092915050565b7f4e487b7100000000000000000000000000000000000000000000000000000000600052601260045260246000fd5b600061179982611268565b91506117a483611268565b9250826117b4576117b361175f565b5b828204905092915050565b7f616c726561647920537461727465640000000000000000000000000000000000600082015250565b60006117f5600f836115fc565b9150611800826117bf565b602082019050919050565b60006020820190508181036000830152611824816117e8565b9050919050565b7f5072696365206d7573742062652067726561746572207468616e205a65726f00600082015250565b6000611861601f836115fc565b915061186c8261182b565b602082019050919050565b6000602082019050818103600083015261189081611854565b9050919050565b7f424e420000000000000000000000000000000000000000000000000000000000600082015250565b60006118cd6003836115fc565b91506118d882611897565b602082019050919050565b60006060820190506118f86000830185611409565b61190560208301846113ad565b8181036040830152611916816118c0565b90509392505050565b7f4f776e61626c653a206e6577206f776e657220697320746865207a65726f206160008201527f6464726573730000000000000000000000000000000000000000000000000000602082015250565b600061197b6026836115fc565b91506119868261191f565b604082019050919050565b600060208201905081810360008301526119aa8161196e565b9050919050565b7f4f776e61626c653a2063616c6c6572206973206e6f7420746865206f776e6572600082015250565b60006119e76020836115fc565b91506119f2826119b1565b602082019050919050565b60006020820190508181036000830152611a16816119da565b905091905056fea26469706673582212202282d8032031ed834e2dc5762ff662d91542812f41de4355d882a754bae7568164736f6c63430008130033",
  "linkReferences": {},
  "deployedLinkReferences": {}
}